{
  "contractName": "Debug2",
  "abi": [
    {
      "inputs": [],
      "name": "result",
      "outputs": [
        {
          "internalType": "uint256",
          "name": "",
          "type": "uint256"
        }
      ],
      "stateMutability": "view",
      "type": "function",
      "constant": true
    },
    {
      "inputs": [
        {
          "internalType": "uint256",
          "name": "q",
          "type": "uint256"
        }
      ],
      "name": "initialize",
      "outputs": [],
      "stateMutability": "nonpayable",
      "type": "function"
    },
    {
      "inputs": [
        {
          "internalType": "uint256",
          "name": "x",
          "type": "uint256"
        }
      ],
      "name": "set",
      "outputs": [],
      "stateMutability": "nonpayable",
      "type": "function"
    },
    {
      "inputs": [
        {
          "internalType": "uint256",
          "name": "x",
          "type": "uint256"
        }
      ],
      "name": "set2",
      "outputs": [],
      "stateMutability": "nonpayable",
      "type": "function"
    }
  ],
  "bytecode": "0x608060405234801561001057600080fd5b50610156806100206000396000f3fe608060405234801561001057600080fd5b506004361061004c5760003560e01c806360fe47b114610051578063653721471461007f578063ce01e1ec1461009d578063fe4b84df146100cb575b600080fd5b61007d6004803603602081101561006757600080fd5b81019080803590602001909291905050506100f9565b005b610087610103565b6040518082815260200191505060405180910390f35b6100c9600480360360208110156100b357600080fd5b8101908080359060200190929190505050610109565b005b6100f7600480360360208110156100e157600080fd5b8101908080359060200190929190505050610116565b005b8060008190555050565b60005481565b6002810260008190555050565b806000819055505056fea264697066735822122058bba75b070b5d68132b8c5fea8a58fa88ae0436911ccf1fff249e8a6fc1b8e964736f6c634300060c0033",
  "immutableReferences": {},
  "source": "// SPDX-License-Identifier: MIT\r\npragma solidity ^0.6.0;\r\nimport \"@openzeppelin/upgrades-core/contracts/Initializable.sol\";\r\n\r\ncontract Debug2 { \r\n    uint public result;  \r\n    \r\n    function initialize(uint q) public {\r\n        result = q;\r\n    }\r\n    function set(uint x) public {\r\n      result = x;  \r\n    }\r\n   function set2(uint x) public {      \r\n      result = x*2;  \r\n    }\r\n}\r\n",
  "sourcePath": "Z:/blockchain/web3examples/ethereum/pattern_examples/Upgrade/contracts/Debug2.sol",
  "compiler": {
    "name": "solc",
    "version": "0.6.12+commit.27d51765.Emscripten.clang"
  },
  "schemaVersion": "3.3.2",
  "updatedAt": "2020-12-07T12:55:06.504Z",
  "networkType": "ethereum",
  "devdoc": {
    "kind": "dev",
    "methods": {},
    "version": 1
  },
  "userdoc": {
    "kind": "user",
    "methods": {},
    "version": 1
  }
}