{
  "contractName": "Debug2",
  "abi": [
    {
      "inputs": [],
      "name": "result",
      "outputs": [
        {
          "internalType": "uint256",
          "name": "",
          "type": "uint256"
        }
      ],
      "stateMutability": "view",
      "type": "function",
      "constant": true
    },
    {
      "inputs": [
        {
          "internalType": "uint256",
          "name": "x",
          "type": "uint256"
        }
      ],
      "name": "set",
      "outputs": [],
      "stateMutability": "nonpayable",
      "type": "function"
    },
    {
      "inputs": [],
      "name": "WhoAmI",
      "outputs": [
        {
          "internalType": "string",
          "name": "",
          "type": "string"
        }
      ],
      "stateMutability": "pure",
      "type": "function",
      "constant": true
    },
    {
      "inputs": [
        {
          "internalType": "uint256",
          "name": "x",
          "type": "uint256"
        }
      ],
      "name": "set2",
      "outputs": [],
      "stateMutability": "nonpayable",
      "type": "function"
    },
    {
      "inputs": [
        {
          "internalType": "uint256",
          "name": "q",
          "type": "uint256"
        }
      ],
      "name": "initialize",
      "outputs": [],
      "stateMutability": "nonpayable",
      "type": "function"
    }
  ],
  "bytecode": "0x608060405234801561001057600080fd5b5061023f806100206000396000f3fe608060405234801561001057600080fd5b50600436106100575760003560e01c806348dfcbf01461005c57806360fe47b1146100df578063653721471461010d578063ce01e1ec1461012b578063fe4b84df14610159575b600080fd5b610064610187565b6040518080602001828103825283818151815260200191508051906020019080838360005b838110156100a4578082015181840152602081019050610089565b50505050905090810190601f1680156100d15780820380516001836020036101000a031916815260200191505b509250505060405180910390f35b61010b600480360360208110156100f557600080fd5b81019080803590602001909291905050506101c4565b005b6101156101ef565b6040518082815260200191505060405180910390f35b6101576004803603602081101561014157600080fd5b81019080803590602001909291905050506101f5565b005b6101856004803603602081101561016f57600080fd5b81019080803590602001909291905050506101ff565b005b60606040518060400160405280600681526020017f4465627567320000000000000000000000000000000000000000000000000000815250905090565b6001810190506002810190506004810190506006810190506008810190506002810260008190555050565b60005481565b8060008190555050565b806000819055505056fea2646970667358221220bfdce821c99088a237fa633a1be08373374e3307a350c94677382ddf931e376e64736f6c634300060c0033",
  "immutableReferences": {},
  "source": "// SPDX-License-Identifier: MIT\r\npragma solidity ^0.6.0;\r\n\r\nimport \"@openzeppelin/upgrades-core/contracts/Initializable.sol\";\r\n\r\ncontract Debug2 { \r\n    uint public result;  \r\n    function set(uint x) public {\r\n      x +=1;\r\n      x +=2;\r\n      x +=4;\r\n      x +=6;\r\n      x +=8;\r\n      result = x*2;  \r\n    }\r\n    \r\n    function WhoAmI() external pure returns(string memory) {\r\n        return \"Debug2\";\r\n    }\r\n    \r\n    \r\n   function set2(uint x) public {      \r\n      result = x;  \r\n    }\r\n    \r\n    function initialize(uint q) public {\r\n        result = q;\r\n    }\r\n}\r\n",
  "sourcePath": "Z:/blockchain/web3examples/ethereum/pattern_examples/Upgrade/contracts/Debug2.sol",
  "compiler": {
    "name": "solc",
    "version": "0.6.12+commit.27d51765.Emscripten.clang"
  },
  "schemaVersion": "3.3.2",
  "updatedAt": "2020-12-07T11:04:47.079Z",
  "networkType": "ethereum",
  "devdoc": {
    "kind": "dev",
    "methods": {},
    "version": 1
  },
  "userdoc": {
    "kind": "user",
    "methods": {},
    "version": 1
  }
}