{
  "contractName": "Debug1",
  "abi": [
    {
      "inputs": [],
      "name": "result",
      "outputs": [
        {
          "internalType": "uint256",
          "name": "",
          "type": "uint256"
        }
      ],
      "stateMutability": "view",
      "type": "function",
      "constant": true
    },
    {
      "inputs": [
        {
          "internalType": "uint256",
          "name": "q",
          "type": "uint256"
        }
      ],
      "name": "initialize",
      "outputs": [],
      "stateMutability": "nonpayable",
      "type": "function"
    },
    {
      "inputs": [
        {
          "internalType": "uint256",
          "name": "x",
          "type": "uint256"
        }
      ],
      "name": "set",
      "outputs": [],
      "stateMutability": "nonpayable",
      "type": "function"
    }
  ],
  "bytecode": "0x608060405234801561001057600080fd5b50610272806100206000396000f3fe608060405234801561001057600080fd5b50600436106100415760003560e01c806360fe47b1146100465780636537214714610074578063fe4b84df14610092575b600080fd5b6100726004803603602081101561005c57600080fd5b81019080803590602001909291905050506100c0565b005b61007c6100eb565b6040518082815260200191505060405180910390f35b6100be600480360360208110156100a857600080fd5b81019080803590602001909291905050506100f1565b005b6001810190506002810190506004810190506006810190506008810190506002810260338190555050565b60335481565b600060019054906101000a900460ff1680610110575061010f6101f7565b5b80610126575060008054906101000a900460ff16155b61017b576040517f08c379a000000000000000000000000000000000000000000000000000000000815260040180806020018281038252602e81526020018061020f602e913960400191505060405180910390fd5b60008060019054906101000a900460ff1615905080156101cb576001600060016101000a81548160ff02191690831515021790555060016000806101000a81548160ff0219169083151502179055505b8160338190555080156101f35760008060016101000a81548160ff0219169083151502179055505b5050565b6000803090506000813b905060008114925050509056fe436f6e747261637420696e7374616e63652068617320616c7265616479206265656e20696e697469616c697a6564a2646970667358221220d3f9a2f8578476bc396f1941f17884e79087877799d98777ae989689dc10cc0164736f6c634300060c0033",
  "immutableReferences": {},
  "source": "// SPDX-License-Identifier: MIT\r\n// npm install @openzeppelin/truffle-upgrades\r\n\r\npragma solidity ^0.6.0;\r\nimport \"@openzeppelin/upgrades-core/contracts/Initializable.sol\";\r\n\r\ncontract Debug1 is Initializable { \r\n    uint public result;  \r\n    \r\n    function initialize(uint q) public initializer {\r\n        result = q;\r\n    }   \r\n    function set(uint x) public {\r\n      x +=1;\r\n      x +=2;\r\n      x +=4;\r\n      x +=6;\r\n      x +=8;\r\n      result = x*2;  \r\n    }\r\n}\r\n",
  "sourcePath": "Z:/blockchain/web3examples/ethereum/pattern_examples/Upgrade/contracts/Debug1.sol",
  "compiler": {
    "name": "solc",
    "version": "0.6.12+commit.27d51765.Emscripten.clang"
  },
  "schemaVersion": "3.3.2",
  "updatedAt": "2020-12-07T13:34:52.298Z",
  "networkType": "ethereum",
  "devdoc": {
    "kind": "dev",
    "methods": {},
    "version": 1
  },
  "userdoc": {
    "kind": "user",
    "methods": {},
    "version": 1
  }
}