{
  "contractName": "Debug2",
  "abi": [
    {
      "inputs": [],
      "name": "result",
      "outputs": [
        {
          "internalType": "uint256",
          "name": "",
          "type": "uint256"
        }
      ],
      "stateMutability": "view",
      "type": "function",
      "constant": true
    },
    {
      "inputs": [
        {
          "internalType": "uint256",
          "name": "q",
          "type": "uint256"
        }
      ],
      "name": "initialize",
      "outputs": [],
      "stateMutability": "nonpayable",
      "type": "function"
    },
    {
      "inputs": [
        {
          "internalType": "uint256",
          "name": "x",
          "type": "uint256"
        }
      ],
      "name": "set",
      "outputs": [],
      "stateMutability": "nonpayable",
      "type": "function"
    },
    {
      "inputs": [
        {
          "internalType": "uint256",
          "name": "x",
          "type": "uint256"
        }
      ],
      "name": "set2",
      "outputs": [],
      "stateMutability": "nonpayable",
      "type": "function"
    }
  ],
  "bytecode": "0x608060405234801561001057600080fd5b50610297806100206000396000f3fe608060405234801561001057600080fd5b506004361061004c5760003560e01c806360fe47b114610051578063653721471461007f578063ce01e1ec1461009d578063fe4b84df146100cb575b600080fd5b61007d6004803603602081101561006757600080fd5b81019080803590602001909291905050506100f9565b005b610087610103565b6040518082815260200191505060405180910390f35b6100c9600480360360208110156100b357600080fd5b8101908080359060200190929190505050610109565b005b6100f7600480360360208110156100e157600080fd5b8101908080359060200190929190505050610116565b005b8060338190555050565b60335481565b6002810260338190555050565b600060019054906101000a900460ff1680610135575061013461021c565b5b8061014b575060008054906101000a900460ff16155b6101a0576040517f08c379a000000000000000000000000000000000000000000000000000000000815260040180806020018281038252602e815260200180610234602e913960400191505060405180910390fd5b60008060019054906101000a900460ff1615905080156101f0576001600060016101000a81548160ff02191690831515021790555060016000806101000a81548160ff0219169083151502179055505b8160338190555080156102185760008060016101000a81548160ff0219169083151502179055505b5050565b6000803090506000813b905060008114925050509056fe436f6e747261637420696e7374616e63652068617320616c7265616479206265656e20696e697469616c697a6564a2646970667358221220bfb55755c6df994a4ed2ffe4d56eb0cef385b40243aeadcd7c1da445993c502464736f6c634300060c0033",
  "immutableReferences": {},
  "source": "// SPDX-License-Identifier: MIT\r\npragma solidity ^0.6.0;\r\nimport \"@openzeppelin/upgrades-core/contracts/Initializable.sol\";\r\n\r\ncontract Debug2 is Initializable{ \r\n    uint public result;  \r\n    \r\n    function initialize(uint q) public initializer{\r\n        result = q;\r\n    }\r\n    function set(uint x) public {\r\n      result = x;  \r\n    }\r\n    function set2(uint x) public {\r\n      result = x*2;  \r\n    }\r\n}\r\n",
  "sourcePath": "Z:/blockchain/web3examples/ethereum/pattern_examples/Upgrade/contracts/Debug2.sol",
  "compiler": {
    "name": "solc",
    "version": "0.6.12+commit.27d51765.Emscripten.clang"
  },
  "schemaVersion": "3.3.2",
  "updatedAt": "2020-12-07T13:34:52.330Z",
  "networkType": "ethereum",
  "devdoc": {
    "kind": "dev",
    "methods": {},
    "version": 1
  },
  "userdoc": {
    "kind": "user",
    "methods": {},
    "version": 1
  }
}