{
  "contractName": "Casino",
  "abi": [
    {
      "inputs": [],
      "payable": true,
      "stateMutability": "payable",
      "type": "constructor"
    },
    {
      "anonymous": false,
      "inputs": [
        {
          "indexed": false,
          "name": "win",
          "type": "bool"
        }
      ],
      "name": "Won",
      "type": "event"
    },
    {
      "constant": false,
      "inputs": [],
      "name": "betAndWin",
      "outputs": [],
      "payable": true,
      "stateMutability": "payable",
      "type": "function"
    },
    {
      "constant": true,
      "inputs": [],
      "name": "getBankBalance",
      "outputs": [
        {
          "name": "ret",
          "type": "uint256"
        }
      ],
      "payable": false,
      "stateMutability": "view",
      "type": "function"
    },
    {
      "constant": true,
      "inputs": [],
      "name": "getRandom",
      "outputs": [
        {
          "name": "",
          "type": "uint256"
        }
      ],
      "payable": false,
      "stateMutability": "view",
      "type": "function"
    }
  ],
  "bytecode": "0x608060405261030f806100136000396000f3fe6080604052600436106100345760003560e01c80637b83b50b14610039578063aacc5a1714610064578063e92927571461008f575b600080fd5b34801561004557600080fd5b5061004e610099565b6040518082815260200191505060405180910390f35b34801561007057600080fd5b506100796100b8565b6040518082815260200191505060405180910390f35b610097610128565b005b60003073ffffffffffffffffffffffffffffffffffffffff1631905090565b6000444142604051602001808481526020018373ffffffffffffffffffffffffffffffffffffffff1673ffffffffffffffffffffffffffffffffffffffff1660601b815260140182815260200193505050506040516020818303038152906040528051906020012060001c905090565b6000339050600034905060006002820290506000610144610099565b9050600083116101bc576040517f08c379a00000000000000000000000000000000000000000000000000000000081526004018080602001828103825260168152602001807f4e6f206d6f6e657920616464656420746f206265742e0000000000000000000081525060200191505060405180910390fd5b80821115610215576040517f08c379a00000000000000000000000000000000000000000000000000000000081526004018080602001828103825260268152602001806102be6026913960400191505060405180910390fd5b60008060026102226100b8565b8161022957fe5b06149050801561027b578473ffffffffffffffffffffffffffffffffffffffff166108fc849081150290604051600060405180830381858888f19350505050158015610279573d6000803e3d6000fd5b505b7f58dda350a596f141b8edbfa563da073317c6c653b9f13221ff8a9cf43ab694fa81604051808215151515815260200191505060405180910390a1505050505056fe4e6f7420656e6f756768206d6f6e657920696e2062616e6b20666f722074686973206265742ea165627a7a72305820dc2b495244f04098b091cd1060599cecea64956230681c47174397aa7f41bda00029",
  "source": "// Load in remix: remix.loadurl(\"https://github.com/web3examples/ethereum/remix_examples/Casino.sol\")\r\npragma solidity >=0.5.0 <0.7.0;\r\n\r\n/** @author Gerard Persoon\r\n    @title A simple casino\r\n*/\r\ncontract Casino {\r\n\r\n    event Won(bool win)  ;   // declaring event  \r\n\r\n    /// Setup an intial amount for the bank, supplied during the creation of the contract.    \r\n    constructor() public payable {\r\n    }\r\n\r\n    /** Perform the bet and pay out if you win\r\n        @dev several temporary variables are created to make debugging easier\r\n    */\r\n    function betAndWin() public payable  { // returning value isn't easy to retreive\r\n        address payable betPlacer = address(msg.sender);\r\n        uint bet = msg.value;\r\n        uint payout = bet * 2;\r\n        uint balance = getBankBalance();    \r\n        require(bet > 0, \"No money added to bet.\");\r\n        require(payout <= balance, \"Not enough money in bank for this bet.\"); // bet has already been added to bank balance\r\n        bool win = bool (getRandom()%2 == 0);\r\n        if (win)\r\n            betPlacer.transfer(payout);        \r\n        emit Won(win);// logging event\r\n    }\r\n\r\n    /** Check the balance of the bank\r\n        @return the balance\r\n    */\r\n    function getBankBalance() public view returns(uint256 ret) {\r\n        return address(this).balance;\r\n    }\r\n    \r\n    /** Draw a random number\r\n        @dev this is not secure but only to demonstrate\r\n        @return a pseudo random number\r\n    */\r\n    function getRandom() public view returns(uint256) { \r\n        return uint256(keccak256(abi.encodePacked(block.difficulty, block.coinbase, block.timestamp)));  \r\n    }    \r\n\r\n\r\n}\r\n",
  "sourcePath": "C:/blockchain_test/casino/contracts/Casino.sol",
  "compiler": {
    "name": "solc",
    "version": "0.5.8+commit.23d335f2.Emscripten.clang"
  },
  "schemaVersion": "3.0.15",
  "updatedAt": "2019-09-12T13:01:20.216Z",
  "devdoc": {
    "author": "Gerard Persoon\r",
    "methods": {
      "betAndWin()": {
        "details": "several temporary variables are created to make debugging easier\r"
      },
      "getBankBalance()": {
        "return": "the balance\r"
      },
      "getRandom()": {
        "details": "this is not secure but only to demonstrate\r",
        "return": "a pseudo random number\r"
      }
    },
    "title": "A simple casino\r"
  },
  "userdoc": {
    "methods": {
      "betAndWin()": {
        "notice": "Perform the bet and pay out if you win\r"
      },
      "constructor": "Setup an intial amount for the bank, supplied during the creation of the contract.    ",
      "getBankBalance()": {
        "notice": "Check the balance of the bank\r"
      },
      "getRandom()": {
        "notice": "Draw a random number\r"
      }
    }
  }
}