{
  "contractName": "Debug",
  "abi": [
    {
      "constant": true,
      "inputs": [],
      "name": "result",
      "outputs": [
        {
          "internalType": "uint256",
          "name": "",
          "type": "uint256"
        }
      ],
      "payable": false,
      "stateMutability": "view",
      "type": "function"
    },
    {
      "constant": false,
      "inputs": [
        {
          "internalType": "uint256",
          "name": "x",
          "type": "uint256"
        }
      ],
      "name": "set",
      "outputs": [],
      "payable": false,
      "stateMutability": "nonpayable",
      "type": "function"
    }
  ],
  "bytecode": "0x608060405234801561001057600080fd5b5060e48061001f6000396000f3fe6080604052348015600f57600080fd5b506004361060325760003560e01c806360fe47b114603757806365372147146062575b600080fd5b606060048036036020811015604b57600080fd5b8101908080359060200190929190505050607e565b005b606860a9565b6040518082815260200191505060405180910390f35b6001810190506002810190506004810190506006810190506008810190506002810260008190555050565b6000548156fea265627a7a72315820b17e982e1c89b087b34102816490887af675d480457e1adb21f12f81f84a6b4d64736f6c63430005100032",
  "source": "// endless loop to demonstrate debugging\r\npragma solidity ^0.5.12;\r\ncontract Debug { \r\n    uint public result;  \r\n    function set(uint x) public {\r\n      x +=1;\r\n      x +=2;\r\n      x +=4;\r\n      x +=6;\r\n      x +=8;\r\n      result = x*2;  \r\n    }\r\n}\r\n",
  "sourcePath": "Z:/blockchain/web3examples/ethereum/truffle_examples/Upgrade/contracts/Debug2.sol",
  "compiler": {
    "name": "solc",
    "version": "0.5.16+commit.9c3226ce.Emscripten.clang"
  },
  "schemaVersion": "3.3.1",
  "updatedAt": "2020-10-23T12:39:59.163Z",
  "devdoc": {
    "methods": {}
  },
  "userdoc": {
    "methods": {}
  }
}