{
  "contractName": "RandomExample1",
  "abi": [
    {
      "inputs": [],
      "name": "queryId",
      "outputs": [
        {
          "internalType": "bytes32",
          "name": "",
          "type": "bytes32"
        }
      ],
      "stateMutability": "view",
      "type": "function",
      "constant": true
    },
    {
      "inputs": [],
      "name": "result",
      "outputs": [
        {
          "internalType": "bytes",
          "name": "",
          "type": "bytes"
        }
      ],
      "stateMutability": "view",
      "type": "function",
      "constant": true
    },
    {
      "inputs": [],
      "name": "initialize",
      "outputs": [],
      "stateMutability": "nonpayable",
      "type": "function"
    },
    {
      "inputs": [
        {
          "internalType": "bytes32",
          "name": "_myid",
          "type": "bytes32"
        },
        {
          "internalType": "string",
          "name": "_result",
          "type": "string"
        }
      ],
      "name": "__callback",
      "outputs": [],
      "stateMutability": "nonpayable",
      "type": "function"
    },
    {
      "inputs": [
        {
          "internalType": "bytes32",
          "name": "_queryId",
          "type": "bytes32"
        },
        {
          "internalType": "string",
          "name": "_result",
          "type": "string"
        },
        {
          "internalType": "bytes",
          "name": "_proof",
          "type": "bytes"
        }
      ],
      "name": "__callback",
      "outputs": [],
      "stateMutability": "nonpayable",
      "type": "function"
    },
    {
      "inputs": [
        {
          "internalType": "uint8",
          "name": "nrbytes",
          "type": "uint8"
        }
      ],
      "name": "GetRandom",
      "outputs": [],
      "stateMutability": "payable",
      "type": "function",
      "payable": true
    }
  ],
  "bytecode": "0x608060405234801561001057600080fd5b50613be7806100206000396000f3fe6080604052600436106100555760003560e01c806327dc297e1461005a57806338bbfa501461012c5780633f1be4d414610295578063446dd971146102c057806365372147146102f15780638129fc1c14610381575b600080fd5b34801561006657600080fd5b5061012a6004803603604081101561007d57600080fd5b8101908080359060200190929190803590602001906401000000008111156100a457600080fd5b8201836020820111156100b657600080fd5b803590602001918460018302840111640100000000831117156100d857600080fd5b91908080601f016020809104026020016040519081016040528093929190818152602001838380828437600081840152601f19601f820116905080830192505050505050509192919290505050610398565b005b34801561013857600080fd5b506102936004803603606081101561014f57600080fd5b81019080803590602001909291908035906020019064010000000081111561017657600080fd5b82018360208201111561018857600080fd5b803590602001918460018302840111640100000000831117156101aa57600080fd5b91908080601f016020809104026020016040519081016040528093929190818152602001838380828437600081840152601f19601f8201169050808301925050505050505091929192908035906020019064010000000081111561020d57600080fd5b82018360208201111561021f57600080fd5b8035906020019184600183028401116401000000008311171561024157600080fd5b91908080601f016020809104026020016040519081016040528093929190818152602001838380828437600081840152601f19601f8201169050808301925050505050505091929192905050506103f2565b005b3480156102a157600080fd5b506102aa6104b5565b6040518082815260200191505060405180910390f35b6102ef600480360360208110156102d657600080fd5b81019080803560ff1690602001909291905050506104bb565b005b3480156102fd57600080fd5b506103066104d4565b6040518080602001828103825283818151815260200191508051906020019080838360005b8381101561034657808201518184015260208101905061032b565b50505050905090810190601f1680156103735780820380516001836020036101000a031916815260200191505b509250505060405180910390f35b34801561038d57600080fd5b50610396610572565b005b6103ee8282600067ffffffffffffffff811180156103b557600080fd5b506040519080825280601f01601f1916602001820160405280156103e85781602001600182028036833780820191505090505b506103f2565b5050565b6103fa610682565b73ffffffffffffffffffffffffffffffffffffffff163373ffffffffffffffffffffffffffffffffffffffff161461043157600080fd5b600061043e84848461099f565b60ff16141561046357816038908051906020019061045d929190613965565b506104b0565b6040518060400160405280600581526020017f4572726f72000000000000000000000000000000000000000000000000000000815250603890805190602001906104ae9291906139e5565b505b505050565b60395481565b6104cb60008260ff166014610acf565b60398190555050565b60388054600181600116156101000203166002900480601f01602080910402602001604051908101604052809291908181526020018280546001816001161561010002031660029004801561056a5780601f1061053f5761010080835404028352916020019161056a565b820191906000526020600020905b81548152906001019060200180831161054d57829003601f168201915b505050505081565b600560019054906101000a900460ff168061059157506105906110f4565b5b806105a95750600560009054906101000a900460ff16155b6105fe576040517f08c379a000000000000000000000000000000000000000000000000000000000815260040180806020018281038252602e815260200180613b44602e913960400191505060405180910390fd5b6000600560019054906101000a900460ff161590508015610650576001600560016101000a81548160ff0219169083151502179055506001600560006101000a81548160ff0219169083151502179055505b61065d603060f81b61110b565b801561067f576000600560016101000a81548160ff0219169083151502179055505b50565b60008073ffffffffffffffffffffffffffffffffffffffff16600160009054906101000a900473ffffffffffffffffffffffffffffffffffffffff1673ffffffffffffffffffffffffffffffffffffffff16148061070a57506000610708600160009054906101000a900473ffffffffffffffffffffffffffffffffffffffff1661142f565b145b1561071b57610719600061143a565b505b600160009054906101000a900473ffffffffffffffffffffffffffffffffffffffff1673ffffffffffffffffffffffffffffffffffffffff166338cc48316040518163ffffffff1660e01b8152600401602060405180830381600087803b15801561078557600080fd5b505af1158015610799573d6000803e3d6000fd5b505050506040513d60208110156107af57600080fd5b810190808051906020019092919050505073ffffffffffffffffffffffffffffffffffffffff1660008054906101000a900473ffffffffffffffffffffffffffffffffffffffff1673ffffffffffffffffffffffffffffffffffffffff16146108f757600160009054906101000a900473ffffffffffffffffffffffffffffffffffffffff1673ffffffffffffffffffffffffffffffffffffffff166338cc48316040518163ffffffff1660e01b8152600401602060405180830381600087803b15801561087c57600080fd5b505af1158015610890573d6000803e3d6000fd5b505050506040513d60208110156108a657600080fd5b81019080805190602001909291905050506000806101000a81548173ffffffffffffffffffffffffffffffffffffffff021916908373ffffffffffffffffffffffffffffffffffffffff1602179055505b60008054906101000a900473ffffffffffffffffffffffffffffffffffffffff1673ffffffffffffffffffffffffffffffffffffffff1663c281d19e6040518163ffffffff1660e01b8152600401602060405180830381600087803b15801561095f57600080fd5b505af1158015610973573d6000803e3d6000fd5b505050506040513d602081101561098957600080fd5b8101908080519060200190929190505050905090565b60007f4c00000000000000000000000000000000000000000000000000000000000000826000815181106109cf57fe5b602001015160f81c60f81b7effffffffffffffffffffffffffffffffffffffffffffffffffffffffffffff1916141580610a6257507f500000000000000000000000000000000000000000000000000000000000000082600181518110610a3257fe5b602001015160f81c60f81b7effffffffffffffffffffffffffffffffffffffffffffffffffffffffffffff191614155b80610a8e5750600160ff1682600281518110610a7a57fe5b602001015160f81c60f81b60f81c60ff1614155b15610a9c5760019050610ac8565b6000610ab1838686610aac61144b565b6114ed565b905080610ac2576002915050610ac8565b60009150505b9392505050565b60008083118015610ae1575060208311155b610aea57600080fd5b600a840293506060600167ffffffffffffffff81118015610b0a57600080fd5b506040519080825280601f01601f191660200182016040528015610b3d5781602001600182028036833780820191505090505b5090508360f81b81600081518110610b5157fe5b60200101907effffffffffffffffffffffffffffffffffffffffffffffffffffffffffffff1916908160001a9053506060602067ffffffffffffffff81118015610b9a57600080fd5b506040519080825280601f01601f191660200182016040528015610bcd5781602001600182028036833780820191505090505b5090506060602067ffffffffffffffff81118015610bea57600080fd5b506040519080825280601f01601f191660200182016040528015610c1d5781602001600182028036833780820191505090505b5090506000610c2a611c0c565b9050602083524241186001430340186020840152602082528060208301526060602067ffffffffffffffff81118015610c6257600080fd5b506040519080825280601f01601f191660200182016040528015610c955781602001600182028036833780820191505090505b5090508860208201526060600867ffffffffffffffff81118015610cb857600080fd5b506040519080825280601f01601f191660200182016040528015610ceb5781602001600182028036833780820191505090505b509050610cfe8260186008846000611f27565b50610d07613a65565b60405180608001604052808781526020018881526020018681526020018481525090506000610d6c6040518060400160405280600681526020017f72616e646f6d0000000000000000000000000000000000000000000000000000815250838c611f86565b90506060600867ffffffffffffffff81118015610d8857600080fd5b506040519080825280601f01601f191660200182016040528015610dbb5781602001600182028036833780820191505090505b50905060208401517f0100000000000000000000000000000000000000000000000000000000000000810460278301537e01000000000000000000000000000000000000000000000000000000000000810460268301537d010000000000000000000000000000000000000000000000000000000000810460258301537c0100000000000000000000000000000000000000000000000000000000810460248301537b01000000000000000000000000000000000000000000000000000000810460238301537a0100000000000000000000000000000000000000000000000000008104602283015379010000000000000000000000000000000000000000000000000081046021830153780100000000000000000000000000000000000000000000000081046020830153506110e1828285600160048110610efa57fe5b6020020151600287600060048110610f0e57fe5b60200201516040518082805190602001908083835b60208310610f465780518252602082019150602081019050602083039250610f23565b6001836020036101000a038019825116818451168082178552505050505050905001915050602060405180830381855afa158015610f88573d6000803e3d6000fd5b5050506040513d6020811015610f9d57600080fd5b810190808051906020019092919050505087600260048110610fbb57fe5b60200201516040516020018085805190602001908083835b60208310610ff65780518252602082019150602081019050602083039250610fd3565b6001836020036101000a03801982511681845116808217855250505050505090500184805190602001908083835b602083106110475780518252602082019150602081019050602083039250611024565b6001836020036101000a03801982511681845116808217855250505050505090500183815260200182805190602001908083835b6020831061109e578051825260208201915060208101905060208303925061107b565b6001836020036101000a03801982511681845116808217855250505050505090500194505050505060405160208183030381529060405280519060200120612309565b8199505050505050505050509392505050565b6000803090506000813b9050600081149250505090565b600073ffffffffffffffffffffffffffffffffffffffff16600160009054906101000a900473ffffffffffffffffffffffffffffffffffffffff1673ffffffffffffffffffffffffffffffffffffffff16148061119257506000611190600160009054906101000a900473ffffffffffffffffffffffffffffffffffffffff1661142f565b145b156111a3576111a1600061143a565b505b600160009054906101000a900473ffffffffffffffffffffffffffffffffffffffff1673ffffffffffffffffffffffffffffffffffffffff166338cc48316040518163ffffffff1660e01b8152600401602060405180830381600087803b15801561120d57600080fd5b505af1158015611221573d6000803e3d6000fd5b505050506040513d602081101561123757600080fd5b810190808051906020019092919050505073ffffffffffffffffffffffffffffffffffffffff1660008054906101000a900473ffffffffffffffffffffffffffffffffffffffff1673ffffffffffffffffffffffffffffffffffffffff161461137f57600160009054906101000a900473ffffffffffffffffffffffffffffffffffffffff1673ffffffffffffffffffffffffffffffffffffffff166338cc48316040518163ffffffff1660e01b8152600401602060405180830381600087803b15801561130457600080fd5b505af1158015611318573d6000803e3d6000fd5b505050506040513d602081101561132e57600080fd5b81019080805190602001909291905050506000806101000a81548173ffffffffffffffffffffffffffffffffffffffff021916908373ffffffffffffffffffffffffffffffffffffffff1602179055505b60008054906101000a900473ffffffffffffffffffffffffffffffffffffffff1673ffffffffffffffffffffffffffffffffffffffff1663688dcfd7826040518263ffffffff1660e01b815260040180827effffffffffffffffffffffffffffffffffffffffffffffffffffffffffffff19168152602001915050600060405180830381600087803b15801561141457600080fd5b505af1158015611428573d6000803e3d6000fd5b5050505050565b6000813b9050919050565b6000611444612325565b9050919050565b606060028054600181600116156101000203166002900480601f0160208091040260200160405190810160405280929190818152602001828054600181600116156101000203166002900480156114e35780601f106114b8576101008083540402835291602001916114e3565b820191906000526020600020905b8154815290600101906020018083116114c657829003601f168201915b5050505050905090565b600080602060028760458151811061150157fe5b602001015160f81c60f81b60f81c60ff16016044010190506060602067ffffffffffffffff8111801561153357600080fd5b506040519080825280601f01601f1916602001820160405280156115665781602001600182028036833780820191505090505b50905061157887836020846000611f27565b50600284876040516020018083805190602001908083835b602083106115b35780518252602082019150602081019050602083039250611590565b6001836020036101000a038019825116818451168082178552505050505050905001828152602001925050506040516020818303038152906040526040518082805190602001908083835b6020831061162157805182526020820191506020810190506020830392506115fe565b6001836020036101000a038019825116818451168082178552505050505050905001915050602060405180830381855afa158015611663573d6000803e3d6000fd5b5050506040513d602081101561167857600080fd5b810190808051906020019092919050505060405160200180828152602001915050604051602081830303815290604052805190602001208180519060200120146116c757600092505050611c04565b606060028860016049860101815181106116dd57fe5b602001015160f81c60f81b60f81c60ff160167ffffffffffffffff8111801561170557600080fd5b506040519080825280601f01601f1916602001820160405280156117385781602001600182028036833780820191505090505b50905061174d88604985018351846000611f27565b506118186002826040518082805190602001908083835b602083106117875780518252602082019150602081019050602083039250611764565b6001836020036101000a038019825116818451168082178552505050505050905001915050602060405180830381855afa1580156117c9573d6000803e3d6000fd5b5050506040513d60208110156117de57600080fd5b8101908080519060200190929190505050878a600860208801018151811061180257fe5b602001015160f81c60f81b60f81c60ff1661287c565b6118285760009350505050611c04565b6060602967ffffffffffffffff8111801561184257600080fd5b506040519080825280601f01601f1916602001820160405280156118755781602001600182028036833780820191505090505b50905061188a89602086016029846000611f27565b506060604067ffffffffffffffff811180156118a557600080fd5b506040519080825280601f01601f1916602001820160405280156118d85781602001600182028036833780820191505090505b50905060006041845160296020890101010190506118fe8b604083036040856000611f27565b5060006002836040518082805190602001908083835b602083106119375780518252602082019150602081019050602083039250611914565b6001836020036101000a038019825116818451168082178552505050505050905001915050602060405180830381855afa158015611979573d6000803e3d6000fd5b5050506040513d602081101561198e57600080fd5b8101908080519060200190929190505050905083816040516020018083805190602001908083835b602083106119d957805182526020820191506020810190506020830392506119b6565b6001836020036101000a0380198251168184511680821785525050505050509050018281526020019250505060405160208183030381529060405280519060200120600360008d8152602001908152602001600020541415611a5157600360008c815260200190815260200160002060009055611a61565b6000975050505050505050611c04565b6060604967ffffffffffffffff81118015611a7b57600080fd5b506040519080825280601f01601f191660200182016040528015611aae5781602001600182028036833780820191505090505b509050611ac08d896049846000611f27565b50611b696002826040518082805190602001908083835b60208310611afa5780518252602082019150602081019050602083039250611ad7565b6001836020036101000a038019825116818451168082178552505050505050905001915050602060405180830381855afa158015611b3c573d6000803e3d6000fd5b5050506040513d6020811015611b5157600080fd5b81019080805190602001909291905050508786612929565b611b7e57600098505050505050505050611c04565b6004600083815260200190815260200160002060009054906101000a900460ff16611bd857611bad8d84612b15565b6004600084815260200190815260200160002060006101000a81548160ff0219169083151502179055505b6004600083815260200190815260200160002060009054906101000a900460ff16985050505050505050505b949350505050565b60008073ffffffffffffffffffffffffffffffffffffffff16600160009054906101000a900473ffffffffffffffffffffffffffffffffffffffff1673ffffffffffffffffffffffffffffffffffffffff161480611c9457506000611c92600160009054906101000a900473ffffffffffffffffffffffffffffffffffffffff1661142f565b145b15611ca557611ca3600061143a565b505b600160009054906101000a900473ffffffffffffffffffffffffffffffffffffffff1673ffffffffffffffffffffffffffffffffffffffff166338cc48316040518163ffffffff1660e01b8152600401602060405180830381600087803b158015611d0f57600080fd5b505af1158015611d23573d6000803e3d6000fd5b505050506040513d6020811015611d3957600080fd5b810190808051906020019092919050505073ffffffffffffffffffffffffffffffffffffffff1660008054906101000a900473ffffffffffffffffffffffffffffffffffffffff1673ffffffffffffffffffffffffffffffffffffffff1614611e8157600160009054906101000a900473ffffffffffffffffffffffffffffffffffffffff1673ffffffffffffffffffffffffffffffffffffffff166338cc48316040518163ffffffff1660e01b8152600401602060405180830381600087803b158015611e0657600080fd5b505af1158015611e1a573d6000803e3d6000fd5b505050506040513d6020811015611e3057600080fd5b81019080805190602001909291905050506000806101000a81548173ffffffffffffffffffffffffffffffffffffffff021916908373ffffffffffffffffffffffffffffffffffffffff1602179055505b60008054906101000a900473ffffffffffffffffffffffffffffffffffffffff1673ffffffffffffffffffffffffffffffffffffffff1663abaa5f3e6040518163ffffffff1660e01b815260040160206040518083038186803b158015611ee757600080fd5b505afa158015611efb573d6000803e3d6000fd5b505050506040513d6020811015611f1157600080fd5b8101908080519060200190929190505050905090565b6060600082850190508084511015611f3e57600080fd5b600086602001905060008460200190505b868860200101821015611f775781890151808288015250602082019150602081019050611f4f565b85935050505095945050505050565b60008073ffffffffffffffffffffffffffffffffffffffff16600160009054906101000a900473ffffffffffffffffffffffffffffffffffffffff1673ffffffffffffffffffffffffffffffffffffffff16148061200e5750600061200c600160009054906101000a900473ffffffffffffffffffffffffffffffffffffffff1661142f565b145b1561201f5761201d600061143a565b505b600160009054906101000a900473ffffffffffffffffffffffffffffffffffffffff1673ffffffffffffffffffffffffffffffffffffffff166338cc48316040518163ffffffff1660e01b8152600401602060405180830381600087803b15801561208957600080fd5b505af115801561209d573d6000803e3d6000fd5b505050506040513d60208110156120b357600080fd5b810190808051906020019092919050505073ffffffffffffffffffffffffffffffffffffffff1660008054906101000a900473ffffffffffffffffffffffffffffffffffffffff1673ffffffffffffffffffffffffffffffffffffffff16146121fb57600160009054906101000a900473ffffffffffffffffffffffffffffffffffffffff1673ffffffffffffffffffffffffffffffffffffffff166338cc48316040518163ffffffff1660e01b8152600401602060405180830381600087803b15801561218057600080fd5b505af1158015612194573d6000803e3d6000fd5b505050506040513d60208110156121aa57600080fd5b81019080805190602001909291905050506000806101000a81548173ffffffffffffffffffffffffffffffffffffffff021916908373ffffffffffffffffffffffffffffffffffffffff1602179055505b6060600467ffffffffffffffff8111801561221557600080fd5b5060405190808252806020026020018201604052801561224957816020015b60608152602001906001900390816122345790505b5090508360006004811061225957fe5b60200201518160008151811061226b57fe5b60200260200101819052508360016004811061228357fe5b60200201518160018151811061229557fe5b6020026020010181905250836002600481106122ad57fe5b6020020151816002815181106122bf57fe5b6020026020010181905250836003600481106122d757fe5b6020020151816003815181106122e957fe5b60200260200101819052506122ff858285612fa1565b9150509392505050565b8060036000848152602001908152602001600020819055505050565b600080612345731d3b2638a7cc9f2cb3d298a3da7a90b67e5506ed61142f565b11156123e757731d3b2638a7cc9f2cb3d298a3da7a90b67e5506ed600160006101000a81548173ffffffffffffffffffffffffffffffffffffffff021916908373ffffffffffffffffffffffffffffffffffffffff1602179055506123de6040518060400160405280600b81526020017f6574685f6d61696e6e6574000000000000000000000000000000000000000000815250613501565b60019050612879565b600061240673c03a2615d5efaf5f49f60b7bb6583eaec212fdf161142f565b11156124a85773c03a2615d5efaf5f49f60b7bb6583eaec212fdf1600160006101000a81548173ffffffffffffffffffffffffffffffffffffffff021916908373ffffffffffffffffffffffffffffffffffffffff16021790555061249f6040518060400160405280600c81526020017f6574685f726f707374656e330000000000000000000000000000000000000000815250613501565b60019050612879565b60006124c773b7a07bcf2ba2f2703b24c0691b5278999c59ac7e61142f565b11156125695773b7a07bcf2ba2f2703b24c0691b5278999c59ac7e600160006101000a81548173ffffffffffffffffffffffffffffffffffffffff021916908373ffffffffffffffffffffffffffffffffffffffff1602179055506125606040518060400160405280600981526020017f6574685f6b6f76616e0000000000000000000000000000000000000000000000815250613501565b60019050612879565b600061258873146500cfd35b22e4a392fe0adc06de1a1368ed4861142f565b111561262a5773146500cfd35b22e4a392fe0adc06de1a1368ed48600160006101000a81548173ffffffffffffffffffffffffffffffffffffffff021916908373ffffffffffffffffffffffffffffffffffffffff1602179055506126216040518060400160405280600b81526020017f6574685f72696e6b656279000000000000000000000000000000000000000000815250613501565b60019050612879565b600061264973a2998efd205fb9d4b4963afb70778d6354ad3a4161142f565b11156126eb5773a2998efd205fb9d4b4963afb70778d6354ad3a41600160006101000a81548173ffffffffffffffffffffffffffffffffffffffff021916908373ffffffffffffffffffffffffffffffffffffffff1602179055506126e26040518060400160405280600a81526020017f6574685f676f65726c6900000000000000000000000000000000000000000000815250613501565b60019050612879565b600061270a736f485c8bf6fc43ea212e93bbf8ce046c7f1cb47561142f565b111561276e57736f485c8bf6fc43ea212e93bbf8ce046c7f1cb475600160006101000a81548173ffffffffffffffffffffffffffffffffffffffff021916908373ffffffffffffffffffffffffffffffffffffffff16021790555060019050612879565b600061278d7320e12a1f859b3feae5fb2a0a32c18f5a65555bbf61142f565b11156127f1577320e12a1f859b3feae5fb2a0a32c18f5a65555bbf600160006101000a81548173ffffffffffffffffffffffffffffffffffffffff021916908373ffffffffffffffffffffffffffffffffffffffff16021790555060019050612879565b60006128107351efaf4c8b3c9afbd5ab9f4bbc82784ab6ef8faa61142f565b1115612874577351efaf4c8b3c9afbd5ab9f4bbc82784ab6ef8faa600160006101000a81548173ffffffffffffffffffffffffffffffffffffffff021916908373ffffffffffffffffffffffffffffffffffffffff16021790555060019050612879565b600090505b90565b600080600190508284511461289057600080fd5b60005b8381101561291d578481815181106128a757fe5b602001015160f81c60f81b7effffffffffffffffffffffffffffffffffffffffffffffffffffffffffffff19168682602081106128e057fe5b1a60f81b7effffffffffffffffffffffffffffffffffffffffffffffffffffffffffffff19161461291057600091505b8080600101915050612893565b50809150509392505050565b60008060008060006060602067ffffffffffffffff8111801561294b57600080fd5b506040519080825280601f01601f19166020018201604052801561297e5781602001600182028036833780820191505090505b509050600060208960038151811061299257fe5b602001015160f81c60f81b60f81c60ff160360040190506129b889826020856000611f27565b91506060602067ffffffffffffffff811180156129d457600080fd5b506040519080825280601f01601f191660200182016040528015612a075781602001600182028036833780820191505090505b509050602282019150612a438a60208c6001860381518110612a2557fe5b602001015160f81c60f81b60f81c60ff160384016020846000611f27565b90506020830151945060208101519350612a608b601b878761351b565b80975081985050508573ffffffffffffffffffffffffffffffffffffffff16898051906020012060001c73ffffffffffffffffffffffffffffffffffffffff161415612ab6576001975050505050505050612b0e565b612ac38b601c878761351b565b80975081985050508573ffffffffffffffffffffffffffffffffffffffff16898051906020012060001c73ffffffffffffffffffffffffffffffffffffffff16149750505050505050505b9392505050565b60008060606002856001860181518110612b2b57fe5b602001015160f81c60f81b60f81c60ff160167ffffffffffffffff81118015612b5357600080fd5b506040519080825280601f01601f191660200182016040528015612b865781602001600182028036833780820191505090505b509050612b9885858351846000611f27565b506060604067ffffffffffffffff81118015612bb357600080fd5b506040519080825280601f01601f191660200182016040528015612be65781602001600182028036833780820191505090505b509050612bf98660046040846000611f27565b506060606267ffffffffffffffff81118015612c1457600080fd5b506040519080825280601f01601f191660200182016040528015612c475781602001600182028036833780820191505090505b509050600160f81b81600081518110612c5c57fe5b60200101907effffffffffffffffffffffffffffffffffffffffffffffffffffffffffffff1916908160001a905350612c9d87604188036041846001611f27565b5060606040518060400160405280602081526020017ffd94fa71bc0ba10d39d464d0d8f465efeef0a2764e3887fcc9df41ded20f505c8152509050612ce88160006020856042611f27565b50612d916002836040518082805190602001908083835b60208310612d225780518252602082019150602081019050602083039250612cff565b6001836020036101000a038019825116818451168082178552505050505050905001915050602060405180830381855afa158015612d64573d6000803e3d6000fd5b5050506040513d6020811015612d7957600080fd5b81019080805190602001909291905050508585612929565b945084612da657600095505050505050612f9b565b6060604051806060016040528060408152602001613b726040913990506060604267ffffffffffffffff81118015612ddd57600080fd5b506040519080825280601f01601f191660200182016040528015612e105781602001600182028036833780820191505090505b50905060fe60f81b81600081518110612e2557fe5b60200101907effffffffffffffffffffffffffffffffffffffffffffffffffffffffffffff1916908160001a905350612e648a60036041846001611f27565b50606060028b604581518110612e7657fe5b602001015160f81c60f81b60f81c60ff160167ffffffffffffffff81118015612e9e57600080fd5b506040519080825280601f01601f191660200182016040528015612ed15781602001600182028036833780820191505090505b509050612ee48b60448351846000611f27565b50612f8d6002836040518082805190602001908083835b60208310612f1e5780518252602082019150602081019050602083039250612efb565b6001836020036101000a038019825116818451168082178552505050505050905001915050602060405180830381855afa158015612f60573d6000803e3d6000fd5b5050506040513d6020811015612f7557600080fd5b81019080805190602001909291905050508285612929565b975087985050505050505050505b92915050565b60008073ffffffffffffffffffffffffffffffffffffffff16600160009054906101000a900473ffffffffffffffffffffffffffffffffffffffff1673ffffffffffffffffffffffffffffffffffffffff16148061302957506000613027600160009054906101000a900473ffffffffffffffffffffffffffffffffffffffff1661142f565b145b1561303a57613038600061143a565b505b600160009054906101000a900473ffffffffffffffffffffffffffffffffffffffff1673ffffffffffffffffffffffffffffffffffffffff166338cc48316040518163ffffffff1660e01b8152600401602060405180830381600087803b1580156130a457600080fd5b505af11580156130b8573d6000803e3d6000fd5b505050506040513d60208110156130ce57600080fd5b810190808051906020019092919050505073ffffffffffffffffffffffffffffffffffffffff1660008054906101000a900473ffffffffffffffffffffffffffffffffffffffff1673ffffffffffffffffffffffffffffffffffffffff161461321657600160009054906101000a900473ffffffffffffffffffffffffffffffffffffffff1673ffffffffffffffffffffffffffffffffffffffff166338cc48316040518163ffffffff1660e01b8152600401602060405180830381600087803b15801561319b57600080fd5b505af11580156131af573d6000803e3d6000fd5b505050506040513d60208110156131c557600080fd5b81019080805190602001909291905050506000806101000a81548173ffffffffffffffffffffffffffffffffffffffff021916908373ffffffffffffffffffffffffffffffffffffffff1602179055505b60008060009054906101000a900473ffffffffffffffffffffffffffffffffffffffff1673ffffffffffffffffffffffffffffffffffffffff16632ef3accc86856040518363ffffffff1660e01b81526004018080602001838152602001828103825284818151815260200191508051906020019080838360005b838110156132ac578082015181840152602081019050613291565b50505050905090810190601f1680156132d95780820380516001836020036101000a031916815260200191505b509350505050602060405180830381600087803b1580156132f957600080fd5b505af115801561330d573d6000803e3d6000fd5b505050506040513d602081101561332357600080fd5b81019080805190602001909291905050509050823a02670de0b6b3a764000001811115613356576000801b9150506134fa565b60606133618561355f565b905060008054906101000a900473ffffffffffffffffffffffffffffffffffffffff1673ffffffffffffffffffffffffffffffffffffffff1663c55c1cb68360008985896040518663ffffffff1660e01b8152600401808581526020018060200180602001848152602001838103835286818151815260200191508051906020019080838360005b838110156134045780820151818401526020810190506133e9565b50505050905090810190601f1680156134315780820380516001836020036101000a031916815260200191505b50838103825285818151815260200191508051906020019080838360005b8381101561346a57808201518184015260208101905061344f565b50505050905090810190601f1680156134975780820380516001836020036101000a031916815260200191505b5096505050505050506020604051808303818588803b1580156134b957600080fd5b505af11580156134cd573d6000803e3d6000fd5b50505050506040513d60208110156134e457600080fd5b8101908080519060200190929190505050925050505b9392505050565b8060029080519060200190613517929190613a8c565b5050565b60008060008060405188815287602082015286604082015285606082015260208160808360006001610bb8f192508051915050818193509350505094509492505050565b60606135696135dc565b613571613b0c565b61357d816104006135e8565b61358681613632565b60005b83518110156135c5576135b88482815181106135a157fe5b60200260200101518361364090919063ffffffff16565b8080600101915050613589565b506135cf81613665565b8060000151915050919050565b60405180590338823950565b60008190506000602082816135f957fe5b0614613612576020818161360957fe5b06602003810190505b808360200181815250506040518084526000815281810160405250505050565b61363d816004613673565b50565b61364d8260028351613694565b61366081836137d490919063ffffffff16565b505050565b613670816007613673565b50565b613690601f60058360ff16901b178361387f90919063ffffffff16565b5050565b601781116136c0576136bb8160058460ff16901b60ff16178461387f90919063ffffffff16565b6137cf565b60ff8111613701576136e5601860058460ff16901b178461387f90919063ffffffff16565b6136fb816001856138bf9092919063ffffffff16565b506137ce565b61ffff811161374357613727601960058460ff16901b178461387f90919063ffffffff16565b61373d816002856138bf9092919063ffffffff16565b506137cd565b63ffffffff81116137875761376b601a60058460ff16901b178461387f90919063ffffffff16565b613781816004856138bf9092919063ffffffff16565b506137cc565b67ffffffffffffffff81116137cb576137b3601b60058460ff16901b178461387f90919063ffffffff16565b6137c9816008856138bf9092919063ffffffff16565b505b5b5b5b5b505050565b6137dc613b0c565b8260200151836000015151835101111561380c5761380b83600261380586602001518651613926565b02613942565b5b60008060008451905085518051602081830101945086518101825260208701935050505b602081106138535781518352602083019250602082019150602081039050613830565b60006001826020036101000a039050801983511681855116818117865250508694505050505092915050565b816020015160018360000151510111156138a5576138a4826002846020015102613942565b5b815180516020818301018381536001820183525050505050565b6138c7613b0c565b8360200151846000015151830111156138f5576138f48460026138ee876020015186613926565b02613942565b5b60006001836101000a0390508451805184818301018684198251161781528582018352505050849150509392505050565b6000818311156139385782905061393c565b8190505b92915050565b60608260000151905061395583836135e8565b61395f83826137d4565b50505050565b828054600181600116156101000203166002900490600052602060002090601f016020900481019282601f106139a657805160ff19168380011785556139d4565b828001600101855582156139d4579182015b828111156139d35782518255916020019190600101906139b8565b5b5090506139e19190613b26565b5090565b828054600181600116156101000203166002900490600052602060002090601f016020900481019282601f10613a2657805160ff1916838001178555613a54565b82800160010185558215613a54579182015b82811115613a53578251825591602001919060010190613a38565b5b509050613a619190613b26565b5090565b60405180608001604052806004905b6060815260200190600190039081613a745790505090565b828054600181600116156101000203166002900490600052602060002090601f016020900481019282601f10613acd57805160ff1916838001178555613afb565b82800160010185558215613afb579182015b82811115613afa578251825591602001919060010190613adf565b5b509050613b089190613b26565b5090565b604051806040016040528060608152602001600081525090565b5b80821115613b3f576000816000905550600101613b27565b509056fe436f6e747261637420696e7374616e63652068617320616c7265616479206265656e20696e697469616c697a65647fb956469c5c9b89840d55b43537e66a98dd4811ea0a27224272c2e5622911e8537a2f8e86a46baec82864e98dd01e9ccc2f8bc5dfc9cbe5a91a290498dd96e4a2646970667358221220181c22e24bb388dbe6da741bd7d409c5bda7c229d0466964d25a1f84115c90f464736f6c634300060c0033",
  "immutableReferences": {},
  "source": "// SPDX-License-Identifier: MIT\r\npragma solidity ^0.6.0;\r\nimport \"./provableAPI.sol\";\r\nimport \"@openzeppelin/upgrades-core/contracts/Initializable.sol\";\r\n\r\n\r\ncontract RandomExample1 is usingProvable,Initializable {\r\n    bytes public result;\r\n    bytes32 public queryId;\r\n    \r\n    function initialize() public initializer { \r\n        provable_setProof(proofType_Ledger); \r\n    }\r\n    \r\n    function __callback(bytes32  _queryId,string memory _result,bytes memory _proof ) override public {\r\n        require(msg.sender == provable_cbAddress());\r\n        if (provable_randomDS_proofVerify__returnCode(_queryId,_result,_proof)== 0)\r\n            result = bytes(_result);\r\n        else\r\n            result=\"Error\";\r\n    }\r\n    \r\n    function GetRandom(uint8 nrbytes) public payable { // not supported in remix\r\n        queryId=provable_newRandomDSQuery(\r\n            0,          // QUERY_EXECUTION_DELAY\r\n            nrbytes,    // NUM_RANDOM_BYTES_REQUESTED\r\n            20      // GAS_FOR_CALLBACK   // far too low on purpose\r\n        );\r\n    }\r\n}\r\n",
  "sourcePath": "Z:/blockchain/web3examples/ethereum/pattern_examples/UpgradeAndOracle/contracts/RandomExample1.sol",
  "compiler": {
    "name": "solc",
    "version": "0.6.12+commit.27d51765.Emscripten.clang"
  },
  "schemaVersion": "3.3.2",
  "updatedAt": "2021-01-29T15:54:34.740Z",
  "networkType": "ethereum",
  "devdoc": {
    "kind": "dev",
    "methods": {
      "__callback(bytes32,string)": {
        "details": "The following `__callback` functions are just placeholders ideally      meant to be defined in child contract when proofs are used.      The function bodies simply silence compiler warnings."
      }
    },
    "version": 1
  },
  "userdoc": {
    "kind": "user",
    "methods": {},
    "version": 1
  }
}