{
  "contractName": "Debug1",
  "abi": [
    {
      "constant": true,
      "inputs": [],
      "name": "result",
      "outputs": [
        {
          "internalType": "uint256",
          "name": "",
          "type": "uint256"
        }
      ],
      "payable": false,
      "stateMutability": "view",
      "type": "function"
    },
    {
      "constant": false,
      "inputs": [
        {
          "internalType": "uint256",
          "name": "x",
          "type": "uint256"
        }
      ],
      "name": "set",
      "outputs": [],
      "payable": false,
      "stateMutability": "nonpayable",
      "type": "function"
    },
    {
      "constant": false,
      "inputs": [
        {
          "internalType": "uint256",
          "name": "q",
          "type": "uint256"
        }
      ],
      "name": "initialize",
      "outputs": [],
      "payable": false,
      "stateMutability": "nonpayable",
      "type": "function"
    }
  ],
  "bytecode": "0x608060405234801561001057600080fd5b50610123806100206000396000f3fe6080604052348015600f57600080fd5b5060043610603c5760003560e01c806360fe47b11460415780636537214714606c578063fe4b84df146088575b600080fd5b606a60048036036020811015605557600080fd5b810190808035906020019092919050505060b3565b005b607260de565b6040518082815260200191505060405180910390f35b60b160048036036020811015609c57600080fd5b810190808035906020019092919050505060e4565b005b6001810190506002810190506004810190506006810190506008810190506002810260008190555050565b60005481565b806000819055505056fea265627a7a72315820cdbb1bd871df1d04c08eaed9a3f4ded90dff980d818147337159b9657aca2f2764736f6c63430005100032",
  "source": "// endless loop to demonstrate debugging\r\npragma solidity ^0.5.12;\r\ncontract Debug1 { \r\n    uint public result;  \r\n    function set(uint x) public {\r\n      x +=1;\r\n      x +=2;\r\n      x +=4;\r\n      x +=6;\r\n      x +=8;\r\n      result = x*2;  \r\n    }\r\n    \r\n    function initialize(uint q) public {\r\n        result = q;\r\n    }\r\n}\r\n",
  "sourcePath": "Z:/blockchain/web3examples/ethereum/truffle_examples/GasStation/contracts/Debug1.sol",
  "compiler": {
    "name": "solc",
    "version": "0.5.16+commit.9c3226ce.Emscripten.clang"
  },
  "schemaVersion": "3.3.1",
  "updatedAt": "2020-10-27T16:20:23.858Z",
  "devdoc": {
    "methods": {}
  },
  "userdoc": {
    "methods": {}
  }
}