{
  "contractName": "IPFSExample",
  "abi": [
    {
      "inputs": [],
      "name": "queryId",
      "outputs": [
        {
          "internalType": "bytes32",
          "name": "",
          "type": "bytes32"
        }
      ],
      "stateMutability": "view",
      "type": "function"
    },
    {
      "inputs": [],
      "name": "result",
      "outputs": [
        {
          "internalType": "string",
          "name": "",
          "type": "string"
        }
      ],
      "stateMutability": "view",
      "type": "function"
    },
    {
      "inputs": [
        {
          "internalType": "bytes32",
          "name": "_myid",
          "type": "bytes32"
        },
        {
          "internalType": "string",
          "name": "_result",
          "type": "string"
        }
      ],
      "name": "__callback",
      "outputs": [],
      "stateMutability": "nonpayable",
      "type": "function"
    },
    {
      "inputs": [
        {
          "internalType": "bytes32",
          "name": "",
          "type": "bytes32"
        },
        {
          "internalType": "string",
          "name": "_result",
          "type": "string"
        },
        {
          "internalType": "bytes",
          "name": "",
          "type": "bytes"
        }
      ],
      "name": "__callback",
      "outputs": [],
      "stateMutability": "nonpayable",
      "type": "function"
    },
    {
      "inputs": [],
      "name": "GetIPFS",
      "outputs": [],
      "stateMutability": "payable",
      "type": "function"
    }
  ],
  "bytecode": "0x608060405234801561001057600080fd5b506113f6806100206000396000f3fe60806040526004361061004a5760003560e01c8063015a353a1461004f57806327dc297e1461005957806338bbfa501461012b5780633f1be4d41461029457806365372147146102bf575b600080fd5b61005761034f565b005b34801561006557600080fd5b506101296004803603604081101561007c57600080fd5b8101908080359060200190929190803590602001906401000000008111156100a357600080fd5b8201836020820111156100b557600080fd5b803590602001918460018302840111640100000000831117156100d757600080fd5b91908080601f016020809104026020016040519081016040528093929190818152602001838380828437600081840152601f19601f8201169050808301925050505050505091929192905050506103ae565b005b34801561013757600080fd5b506102926004803603606081101561014e57600080fd5b81019080803590602001909291908035906020019064010000000081111561017557600080fd5b82018360208201111561018757600080fd5b803590602001918460018302840111640100000000831117156101a957600080fd5b91908080601f016020809104026020016040519081016040528093929190818152602001838380828437600081840152601f19601f8201169050808301925050505050505091929192908035906020019064010000000081111561020c57600080fd5b82018360208201111561021e57600080fd5b8035906020019184600183028401116401000000008311171561024057600080fd5b91908080601f016020809104026020016040519081016040528093929190818152602001838380828437600081840152601f19601f820116905080830192505050505050509192919290505050610408565b005b3480156102a057600080fd5b506102a9610463565b6040518082815260200191505060405180910390f35b3480156102cb57600080fd5b506102d4610469565b6040518080602001828103825283818151815260200191508051906020019080838360005b838110156103145780820151818401526020810190506102f9565b50505050905090810190601f1680156103415780820380516001836020036101000a031916815260200191505b509250505060405180910390f35b6103a66040518060400160405280600481526020017f49504653000000000000000000000000000000000000000000000000000000008152506040518060600160405280602e8152602001611393602e9139610507565b600681905550565b6104048282600067ffffffffffffffff811180156103cb57600080fd5b506040519080825280601f01601f1916602001820160405280156103fe5781602001600182028036833780820191505090505b50610408565b5050565b610410610a4b565b73ffffffffffffffffffffffffffffffffffffffff163373ffffffffffffffffffffffffffffffffffffffff161461044757600080fd5b816005908051906020019061045d9291906112f5565b50505050565b60065481565b60058054600181600116156101000203166002900480601f0160208091040260200160405190810160405280929190818152602001828054600181600116156101000203166002900480156104ff5780601f106104d4576101008083540402835291602001916104ff565b820191906000526020600020905b8154815290600101906020018083116104e257829003601f168201915b505050505081565b60008073ffffffffffffffffffffffffffffffffffffffff16600160009054906101000a900473ffffffffffffffffffffffffffffffffffffffff1673ffffffffffffffffffffffffffffffffffffffff16148061058f5750600061058d600160009054906101000a900473ffffffffffffffffffffffffffffffffffffffff16610d68565b145b156105a05761059e6000610d73565b505b600160009054906101000a900473ffffffffffffffffffffffffffffffffffffffff1673ffffffffffffffffffffffffffffffffffffffff166338cc48316040518163ffffffff1660e01b8152600401602060405180830381600087803b15801561060a57600080fd5b505af115801561061e573d6000803e3d6000fd5b505050506040513d602081101561063457600080fd5b810190808051906020019092919050505073ffffffffffffffffffffffffffffffffffffffff1660008054906101000a900473ffffffffffffffffffffffffffffffffffffffff1673ffffffffffffffffffffffffffffffffffffffff161461077c57600160009054906101000a900473ffffffffffffffffffffffffffffffffffffffff1673ffffffffffffffffffffffffffffffffffffffff166338cc48316040518163ffffffff1660e01b8152600401602060405180830381600087803b15801561070157600080fd5b505af1158015610715573d6000803e3d6000fd5b505050506040513d602081101561072b57600080fd5b81019080805190602001909291905050506000806101000a81548173ffffffffffffffffffffffffffffffffffffffff021916908373ffffffffffffffffffffffffffffffffffffffff1602179055505b60008060009054906101000a900473ffffffffffffffffffffffffffffffffffffffff1673ffffffffffffffffffffffffffffffffffffffff1663524f3889856040518263ffffffff1660e01b81526004018080602001828103825283818151815260200191508051906020019080838360005b8381101561080b5780820151818401526020810190506107f0565b50505050905090810190601f1680156108385780820380516001836020036101000a031916815260200191505b5092505050602060405180830381600087803b15801561085757600080fd5b505af115801561086b573d6000803e3d6000fd5b505050506040513d602081101561088157600080fd5b8101908080519060200190929190505050905062030d403a02670de0b6b3a7640000018111156108b7576000801b915050610a45565b60008054906101000a900473ffffffffffffffffffffffffffffffffffffffff1673ffffffffffffffffffffffffffffffffffffffff1663adf59f9982600087876040518563ffffffff1660e01b8152600401808481526020018060200180602001838103835285818151815260200191508051906020019080838360005b83811015610951578082015181840152602081019050610936565b50505050905090810190601f16801561097e5780820380516001836020036101000a031916815260200191505b50838103825284818151815260200191508051906020019080838360005b838110156109b757808201518184015260208101905061099c565b50505050905090810190601f1680156109e45780820380516001836020036101000a031916815260200191505b50955050505050506020604051808303818588803b158015610a0557600080fd5b505af1158015610a19573d6000803e3d6000fd5b50505050506040513d6020811015610a3057600080fd5b81019080805190602001909291905050509150505b92915050565b60008073ffffffffffffffffffffffffffffffffffffffff16600160009054906101000a900473ffffffffffffffffffffffffffffffffffffffff1673ffffffffffffffffffffffffffffffffffffffff161480610ad357506000610ad1600160009054906101000a900473ffffffffffffffffffffffffffffffffffffffff16610d68565b145b15610ae457610ae26000610d73565b505b600160009054906101000a900473ffffffffffffffffffffffffffffffffffffffff1673ffffffffffffffffffffffffffffffffffffffff166338cc48316040518163ffffffff1660e01b8152600401602060405180830381600087803b158015610b4e57600080fd5b505af1158015610b62573d6000803e3d6000fd5b505050506040513d6020811015610b7857600080fd5b810190808051906020019092919050505073ffffffffffffffffffffffffffffffffffffffff1660008054906101000a900473ffffffffffffffffffffffffffffffffffffffff1673ffffffffffffffffffffffffffffffffffffffff1614610cc057600160009054906101000a900473ffffffffffffffffffffffffffffffffffffffff1673ffffffffffffffffffffffffffffffffffffffff166338cc48316040518163ffffffff1660e01b8152600401602060405180830381600087803b158015610c4557600080fd5b505af1158015610c59573d6000803e3d6000fd5b505050506040513d6020811015610c6f57600080fd5b81019080805190602001909291905050506000806101000a81548173ffffffffffffffffffffffffffffffffffffffff021916908373ffffffffffffffffffffffffffffffffffffffff1602179055505b60008054906101000a900473ffffffffffffffffffffffffffffffffffffffff1673ffffffffffffffffffffffffffffffffffffffff1663c281d19e6040518163ffffffff1660e01b8152600401602060405180830381600087803b158015610d2857600080fd5b505af1158015610d3c573d6000803e3d6000fd5b505050506040513d6020811015610d5257600080fd5b8101908080519060200190929190505050905090565b6000813b9050919050565b6000610d7d610d84565b9050919050565b600080610da4731d3b2638a7cc9f2cb3d298a3da7a90b67e5506ed610d68565b1115610e4657731d3b2638a7cc9f2cb3d298a3da7a90b67e5506ed600160006101000a81548173ffffffffffffffffffffffffffffffffffffffff021916908373ffffffffffffffffffffffffffffffffffffffff160217905550610e3d6040518060400160405280600b81526020017f6574685f6d61696e6e65740000000000000000000000000000000000000000008152506112db565b600190506112d8565b6000610e6573c03a2615d5efaf5f49f60b7bb6583eaec212fdf1610d68565b1115610f075773c03a2615d5efaf5f49f60b7bb6583eaec212fdf1600160006101000a81548173ffffffffffffffffffffffffffffffffffffffff021916908373ffffffffffffffffffffffffffffffffffffffff160217905550610efe6040518060400160405280600c81526020017f6574685f726f707374656e3300000000000000000000000000000000000000008152506112db565b600190506112d8565b6000610f2673b7a07bcf2ba2f2703b24c0691b5278999c59ac7e610d68565b1115610fc85773b7a07bcf2ba2f2703b24c0691b5278999c59ac7e600160006101000a81548173ffffffffffffffffffffffffffffffffffffffff021916908373ffffffffffffffffffffffffffffffffffffffff160217905550610fbf6040518060400160405280600981526020017f6574685f6b6f76616e00000000000000000000000000000000000000000000008152506112db565b600190506112d8565b6000610fe773146500cfd35b22e4a392fe0adc06de1a1368ed48610d68565b11156110895773146500cfd35b22e4a392fe0adc06de1a1368ed48600160006101000a81548173ffffffffffffffffffffffffffffffffffffffff021916908373ffffffffffffffffffffffffffffffffffffffff1602179055506110806040518060400160405280600b81526020017f6574685f72696e6b6562790000000000000000000000000000000000000000008152506112db565b600190506112d8565b60006110a873a2998efd205fb9d4b4963afb70778d6354ad3a41610d68565b111561114a5773a2998efd205fb9d4b4963afb70778d6354ad3a41600160006101000a81548173ffffffffffffffffffffffffffffffffffffffff021916908373ffffffffffffffffffffffffffffffffffffffff1602179055506111416040518060400160405280600a81526020017f6574685f676f65726c69000000000000000000000000000000000000000000008152506112db565b600190506112d8565b6000611169736f485c8bf6fc43ea212e93bbf8ce046c7f1cb475610d68565b11156111cd57736f485c8bf6fc43ea212e93bbf8ce046c7f1cb475600160006101000a81548173ffffffffffffffffffffffffffffffffffffffff021916908373ffffffffffffffffffffffffffffffffffffffff160217905550600190506112d8565b60006111ec7320e12a1f859b3feae5fb2a0a32c18f5a65555bbf610d68565b1115611250577320e12a1f859b3feae5fb2a0a32c18f5a65555bbf600160006101000a81548173ffffffffffffffffffffffffffffffffffffffff021916908373ffffffffffffffffffffffffffffffffffffffff160217905550600190506112d8565b600061126f7351efaf4c8b3c9afbd5ab9f4bbc82784ab6ef8faa610d68565b11156112d3577351efaf4c8b3c9afbd5ab9f4bbc82784ab6ef8faa600160006101000a81548173ffffffffffffffffffffffffffffffffffffffff021916908373ffffffffffffffffffffffffffffffffffffffff160217905550600190506112d8565b600090505b90565b80600290805190602001906112f19291906112f5565b5050565b828054600181600116156101000203166002900490600052602060002090601f016020900481019282601f1061133657805160ff1916838001178555611364565b82800160010185558215611364579182015b82811115611363578251825591602001919060010190611348565b5b5090506113719190611375565b5090565b5b8082111561138e576000816000905550600101611376565b509056fe516d5453595947546d424b6133717471734279356a4c61457176536375503441336b3670314b5636356239684e51a2646970667358221220efa68a1415dbd595aef382d2ce42ab8113ef1356385b303547484c64bc649da664736f6c634300060c0033",
  "immutableReferences": {},
  "source": "// SPDX-License-Identifier: MIT\r\npragma solidity ^0.6.0;\r\n\r\n\r\n//import \"github.com/provable-things/ethereum-api/provableAPI_0.6.sol\"; // remix\r\n//save \"https://raw.githubusercontent.com/provable-things/ethereum-api/master/provableAPI_0.6.sol\"; locally & \r\nimport \"./provableAPI_0.6.sol\";\r\n//npm install provable-eth-api ==> only support for solidity 0.5\r\n//import \"provable-eth-api/provableAPI_0.5.sol\";\r\n// also see https://github.com/provable-things/ethereum-examples/tree/master/solidity/truffle-examples\r\n\r\ncontract IPFSExample is usingProvable {\r\n    string public result;\r\n    bytes32 public queryId;\r\n\r\n    function __callback(bytes32,string memory _result,bytes memory) override public { \r\n        require(msg.sender == provable_cbAddress());\r\n        result = _result;\r\n    }\r\n    function GetIPFS() public payable { // doesn't work in Remix\r\n        queryId=provable_query(\"IPFS\",\"QmTSYYGTmBKa3qtqsBy5jLaEqvScuP4A3k6p1KV65b9hNQ\");\r\n    }\r\n}\r\n// https://ipfs.io/ipfs/QmTSYYGTmBKa3qtqsBy5jLaEqvScuP4A3k6p1KV65b9hNQ\r\n// Web3examples\r\n",
  "sourcePath": "Z:/blockchain/web3examples/ethereum/oracle_examples/ipfs/contracts/provable_ipfs.sol",
  "compiler": {
    "name": "solc",
    "version": "0.6.12+commit.27d51765.Emscripten.clang"
  },
  "schemaVersion": "3.3.2",
  "updatedAt": "2020-12-14T16:27:10.791Z",
  "devdoc": {
    "kind": "dev",
    "methods": {
      "__callback(bytes32,string)": {
        "details": "The following `__callback` functions are just placeholders ideally      meant to be defined in child contract when proofs are used.      The function bodies simply silence compiler warnings."
      }
    },
    "version": 1
  },
  "userdoc": {
    "kind": "user",
    "methods": {},
    "version": 1
  }
}