{
    "contractName": "A",
    "abi": [
        {
            "inputs": [],
            "name": "ExtA",
            "outputs": [
                {
                    "internalType": "string",
                    "name": "",
                    "type": "string"
                }
            ],
            "stateMutability": "view",
            "type": "function"
        }
    ],
    "bytecode": "608060405234801561001057600080fd5b5060f98061001f6000396000f3fe6080604052348015600f57600080fd5b506004361060285760003560e01c8063672e638114602d575b600080fd5b603360a5565b6040805160208082528351818301528351919283929083019185019080838360005b83811015606b5781810151838201526020016055565b50505050905090810190601f16801560975780820380516001836020036101000a031916815260200191505b509250505060405180910390f35b6040805180820190915260048152634578744160e01b60208201529056fea26469706673582212200781e0373f25887bd95907facc14e22e4e7e62139464a2137b0e460a849583c264736f6c63430007000033",
    "sourcePath": "z:/blockchain/web3examples/ethereum/visualize_examples/visualize.sol",
    "compiler": {
        "name": "solc",
        "version": "0.7.0+commit.9e61f92b"
    },
    "functionHashes": {
        "ExtA()": "672e6381"
    },
    "gasEstimates": {
        "creation": {
            "codeDepositCost": "49800",
            "executionCost": "99",
            "totalCost": "49899"
        },
        "external": {
            "ExtA()": "infinite"
        }
    }
}