{
    "contractName": "B",
    "abi": [
        {
            "inputs": [],
            "name": "ExtB",
            "outputs": [
                {
                    "internalType": "string",
                    "name": "",
                    "type": "string"
                }
            ],
            "stateMutability": "view",
            "type": "function"
        }
    ],
    "bytecode": "608060405234801561001057600080fd5b5061024d806100206000396000f3fe608060405234801561001057600080fd5b506004361061002b5760003560e01c806319c9da4814610030575b600080fd5b6100386100ad565b6040805160208082528351818301528351919283929083019185019080838360005b8381101561007257818101518382015260200161005a565b50505050905090810190601f16801561009f5780820380516001836020036101000a031916815260200191505b509250505060405180910390f35b6060806100b86101f9565b905060008054906101000a90046001600160a01b03166001600160a01b031663672e63816040518163ffffffff1660e01b815260040160006040518083038186803b15801561010657600080fd5b505afa15801561011a573d6000803e3d6000fd5b505050506040513d6000823e601f3d908101601f19168201604052602081101561014357600080fd5b810190808051604051939291908464010000000082111561016357600080fd5b90830190602082018581111561017857600080fd5b825164010000000081118282018810171561019257600080fd5b82525081516020918201929091019080838360005b838110156101bf5781810151838201526020016101a7565b50505050905090810190601f1680156101ec5780820380516001836020036101000a031916815260200191505b5060405250505091505090565b60408051808201909152600481526334b73a2160e11b60208201529056fea264697066735822122030c0129c4b3acc774f0335d6f2294491917c23041e71bb008507dc6b06cc9ad964736f6c63430007000033",
    "sourcePath": "z:/blockchain/web3examples/ethereum/visualize_examples/visualize.sol",
    "compiler": {
        "name": "solc",
        "version": "0.7.0+commit.9e61f92b"
    },
    "functionHashes": {
        "ExtB()": "19c9da48"
    },
    "gasEstimates": {
        "creation": {
            "codeDepositCost": "117800",
            "executionCost": "165",
            "totalCost": "117965"
        },
        "external": {
            "ExtB()": "infinite"
        },
        "internal": {
            "intB()": "infinite"
        }
    }
}