{
  "contractName": "TestPublish",
  "abi": [
    {
      "inputs": [],
      "name": "MyName",
      "outputs": [
        {
          "internalType": "string",
          "name": "",
          "type": "string"
        }
      ],
      "stateMutability": "view",
      "type": "function",
      "constant": true
    },
    {
      "inputs": [
        {
          "internalType": "string",
          "name": "_MyName",
          "type": "string"
        }
      ],
      "name": "SetMyName",
      "outputs": [],
      "stateMutability": "nonpayable",
      "type": "function"
    }
  ],
  "bytecode": "0x60806040526040518060400160405280601d81526020017f54657374207075626c69636174696f6e20746f2045746865727363616e0000008152506000908051906020019061004f929190610062565b5034801561005c57600080fd5b5061010d565b828054600181600116156101000203166002900490600052602060002090601f01602090048101928261009857600085556100df565b82601f106100b157805160ff19168380011785556100df565b828001600101855582156100df579182015b828111156100de5782518255916020019190600101906100c3565b5b5090506100ec91906100f0565b5090565b5b808211156101095760008160009055506001016100f1565b5090565b6102cc8061011c6000396000f3fe608060405234801561001057600080fd5b50600436106100365760003560e01c8063283f65021461003b578063eb8f4bfe146100be575b600080fd5b610043610137565b6040518080602001828103825283818151815260200191508051906020019080838360005b83811015610083578082015181840152602081019050610068565b50505050905090810190601f1680156100b05780820380516001836020036101000a031916815260200191505b509250505060405180910390f35b610135600480360360208110156100d457600080fd5b81019080803590602001906401000000008111156100f157600080fd5b82018360208201111561010357600080fd5b8035906020019184600183028401116401000000008311171561012557600080fd5b90919293919293905050506101d5565b005b60008054600181600116156101000203166002900480601f0160208091040260200160405190810160405280929190818152602001828054600181600116156101000203166002900480156101cd5780601f106101a2576101008083540402835291602001916101cd565b820191906000526020600020905b8154815290600101906020018083116101b057829003601f168201915b505050505081565b8181600091906101e69291906101eb565b505050565b828054600181600116156101000203166002900490600052602060002090601f0160209004810192826102215760008555610268565b82601f1061023a57803560ff1916838001178555610268565b82800160010185558215610268579182015b8281111561026757823582559160200191906001019061024c565b5b5090506102759190610279565b5090565b5b8082111561029257600081600090555060010161027a565b509056fea26469706673582212207a3795ee82bf4b328aeb810354fa06c3d2a7e487e7eb8f1aaa7977990fb7e8e864736f6c63430007060033",
  "immutableReferences": {},
  "source": "// SPDX-License-Identifier: MIT\r\n// npm install -g truffle-plugin-verify (at least version 0.5.3)\r\n// truffle run verify TestPublish --network rinkeby\r\npragma solidity ^0.7.0;\r\n\r\nimport \"./SecondContract.sol\"; // carefull, do not include the name i m p o r t  here!\r\n\r\ncontract TestPublish {\r\n  string public MyName=\"Test publication to Etherscan\";\r\n  function SetMyName(string calldata _MyName) external {\r\n     MyName = _MyName;\r\n  }\r\n}\r\n",
  "sourcePath": "Z:/blockchain/web3examples/ethereum/pattern_examples/Verify/contracts/TestPublish.sol",
  "compiler": {
    "name": "solc",
    "version": "0.7.6+commit.7338295f.Emscripten.clang"
  },
  "schemaVersion": "3.3.2",
  "updatedAt": "2020-12-21T10:49:03.526Z",
  "networkType": "ethereum",
  "devdoc": {
    "kind": "dev",
    "methods": {},
    "version": 1
  },
  "userdoc": {
    "kind": "user",
    "methods": {},
    "version": 1
  }
}