{
  "contractName": "RandomExample2",
  "abi": [
    {
      "inputs": [],
      "name": "queryId",
      "outputs": [
        {
          "internalType": "bytes32",
          "name": "",
          "type": "bytes32"
        }
      ],
      "stateMutability": "view",
      "type": "function",
      "constant": true
    },
    {
      "inputs": [],
      "name": "result",
      "outputs": [
        {
          "internalType": "bytes",
          "name": "",
          "type": "bytes"
        }
      ],
      "stateMutability": "view",
      "type": "function",
      "constant": true
    },
    {
      "inputs": [],
      "name": "initialize",
      "outputs": [],
      "stateMutability": "nonpayable",
      "type": "function"
    },
    {
      "inputs": [
        {
          "internalType": "bytes32",
          "name": "_myid",
          "type": "bytes32"
        },
        {
          "internalType": "string",
          "name": "_result",
          "type": "string"
        }
      ],
      "name": "__callback",
      "outputs": [],
      "stateMutability": "nonpayable",
      "type": "function"
    },
    {
      "inputs": [
        {
          "internalType": "bytes32",
          "name": "_queryId",
          "type": "bytes32"
        },
        {
          "internalType": "string",
          "name": "_result",
          "type": "string"
        },
        {
          "internalType": "bytes",
          "name": "_proof",
          "type": "bytes"
        }
      ],
      "name": "__callback",
      "outputs": [],
      "stateMutability": "nonpayable",
      "type": "function"
    },
    {
      "inputs": [
        {
          "internalType": "uint8",
          "name": "nrbytes",
          "type": "uint8"
        }
      ],
      "name": "GetRandom",
      "outputs": [],
      "stateMutability": "payable",
      "type": "function",
      "payable": true
    }
  ],
  "bytecode": "0x608060405234801561001057600080fd5b50613be9806100206000396000f3fe6080604052600436106100555760003560e01c806327dc297e1461005a57806338bbfa501461012c5780633f1be4d414610295578063446dd971146102c057806365372147146102f15780638129fc1c14610381575b600080fd5b34801561006657600080fd5b5061012a6004803603604081101561007d57600080fd5b8101908080359060200190929190803590602001906401000000008111156100a457600080fd5b8201836020820111156100b657600080fd5b803590602001918460018302840111640100000000831117156100d857600080fd5b91908080601f016020809104026020016040519081016040528093929190818152602001838380828437600081840152601f19601f820116905080830192505050505050509192919290505050610398565b005b34801561013857600080fd5b506102936004803603606081101561014f57600080fd5b81019080803590602001909291908035906020019064010000000081111561017657600080fd5b82018360208201111561018857600080fd5b803590602001918460018302840111640100000000831117156101aa57600080fd5b91908080601f016020809104026020016040519081016040528093929190818152602001838380828437600081840152601f19601f8201169050808301925050505050505091929192908035906020019064010000000081111561020d57600080fd5b82018360208201111561021f57600080fd5b8035906020019184600183028401116401000000008311171561024157600080fd5b91908080601f016020809104026020016040519081016040528093929190818152602001838380828437600081840152601f19601f8201169050808301925050505050505091929192905050506103f2565b005b3480156102a157600080fd5b506102aa6104b5565b6040518082815260200191505060405180910390f35b6102ef600480360360208110156102d657600080fd5b81019080803560ff1690602001909291905050506104bb565b005b3480156102fd57600080fd5b506103066104d6565b6040518080602001828103825283818151815260200191508051906020019080838360005b8381101561034657808201518184015260208101905061032b565b50505050905090810190601f1680156103735780820380516001836020036101000a031916815260200191505b509250505060405180910390f35b34801561038d57600080fd5b50610396610574565b005b6103ee8282600067ffffffffffffffff811180156103b557600080fd5b506040519080825280601f01601f1916602001820160405280156103e85781602001600182028036833780820191505090505b506103f2565b5050565b6103fa610684565b73ffffffffffffffffffffffffffffffffffffffff163373ffffffffffffffffffffffffffffffffffffffff161461043157600080fd5b600061043e8484846109a1565b60ff16141561046357816038908051906020019061045d929190613967565b506104b0565b6040518060400160405280600581526020017f4572726f72000000000000000000000000000000000000000000000000000000815250603890805190602001906104ae9291906139e7565b505b505050565b60395481565b6104cd60008260ff1662030d40610ad1565b60398190555050565b60388054600181600116156101000203166002900480601f01602080910402602001604051908101604052809291908181526020018280546001816001161561010002031660029004801561056c5780601f106105415761010080835404028352916020019161056c565b820191906000526020600020905b81548152906001019060200180831161054f57829003601f168201915b505050505081565b600560019054906101000a900460ff168061059357506105926110f6565b5b806105ab5750600560009054906101000a900460ff16155b610600576040517f08c379a000000000000000000000000000000000000000000000000000000000815260040180806020018281038252602e815260200180613b46602e913960400191505060405180910390fd5b6000600560019054906101000a900460ff161590508015610652576001600560016101000a81548160ff0219169083151502179055506001600560006101000a81548160ff0219169083151502179055505b61065f603060f81b61110d565b8015610681576000600560016101000a81548160ff0219169083151502179055505b50565b60008073ffffffffffffffffffffffffffffffffffffffff16600160009054906101000a900473ffffffffffffffffffffffffffffffffffffffff1673ffffffffffffffffffffffffffffffffffffffff16148061070c5750600061070a600160009054906101000a900473ffffffffffffffffffffffffffffffffffffffff16611431565b145b1561071d5761071b600061143c565b505b600160009054906101000a900473ffffffffffffffffffffffffffffffffffffffff1673ffffffffffffffffffffffffffffffffffffffff166338cc48316040518163ffffffff1660e01b8152600401602060405180830381600087803b15801561078757600080fd5b505af115801561079b573d6000803e3d6000fd5b505050506040513d60208110156107b157600080fd5b810190808051906020019092919050505073ffffffffffffffffffffffffffffffffffffffff1660008054906101000a900473ffffffffffffffffffffffffffffffffffffffff1673ffffffffffffffffffffffffffffffffffffffff16146108f957600160009054906101000a900473ffffffffffffffffffffffffffffffffffffffff1673ffffffffffffffffffffffffffffffffffffffff166338cc48316040518163ffffffff1660e01b8152600401602060405180830381600087803b15801561087e57600080fd5b505af1158015610892573d6000803e3d6000fd5b505050506040513d60208110156108a857600080fd5b81019080805190602001909291905050506000806101000a81548173ffffffffffffffffffffffffffffffffffffffff021916908373ffffffffffffffffffffffffffffffffffffffff1602179055505b60008054906101000a900473ffffffffffffffffffffffffffffffffffffffff1673ffffffffffffffffffffffffffffffffffffffff1663c281d19e6040518163ffffffff1660e01b8152600401602060405180830381600087803b15801561096157600080fd5b505af1158015610975573d6000803e3d6000fd5b505050506040513d602081101561098b57600080fd5b8101908080519060200190929190505050905090565b60007f4c00000000000000000000000000000000000000000000000000000000000000826000815181106109d157fe5b602001015160f81c60f81b7effffffffffffffffffffffffffffffffffffffffffffffffffffffffffffff1916141580610a6457507f500000000000000000000000000000000000000000000000000000000000000082600181518110610a3457fe5b602001015160f81c60f81b7effffffffffffffffffffffffffffffffffffffffffffffffffffffffffffff191614155b80610a905750600160ff1682600281518110610a7c57fe5b602001015160f81c60f81b60f81c60ff1614155b15610a9e5760019050610aca565b6000610ab3838686610aae61144d565b6114ef565b905080610ac4576002915050610aca565b60009150505b9392505050565b60008083118015610ae3575060208311155b610aec57600080fd5b600a840293506060600167ffffffffffffffff81118015610b0c57600080fd5b506040519080825280601f01601f191660200182016040528015610b3f5781602001600182028036833780820191505090505b5090508360f81b81600081518110610b5357fe5b60200101907effffffffffffffffffffffffffffffffffffffffffffffffffffffffffffff1916908160001a9053506060602067ffffffffffffffff81118015610b9c57600080fd5b506040519080825280601f01601f191660200182016040528015610bcf5781602001600182028036833780820191505090505b5090506060602067ffffffffffffffff81118015610bec57600080fd5b506040519080825280601f01601f191660200182016040528015610c1f5781602001600182028036833780820191505090505b5090506000610c2c611c0e565b9050602083524241186001430340186020840152602082528060208301526060602067ffffffffffffffff81118015610c6457600080fd5b506040519080825280601f01601f191660200182016040528015610c975781602001600182028036833780820191505090505b5090508860208201526060600867ffffffffffffffff81118015610cba57600080fd5b506040519080825280601f01601f191660200182016040528015610ced5781602001600182028036833780820191505090505b509050610d008260186008846000611f29565b50610d09613a67565b60405180608001604052808781526020018881526020018681526020018481525090506000610d6e6040518060400160405280600681526020017f72616e646f6d0000000000000000000000000000000000000000000000000000815250838c611f88565b90506060600867ffffffffffffffff81118015610d8a57600080fd5b506040519080825280601f01601f191660200182016040528015610dbd5781602001600182028036833780820191505090505b50905060208401517f0100000000000000000000000000000000000000000000000000000000000000810460278301537e01000000000000000000000000000000000000000000000000000000000000810460268301537d010000000000000000000000000000000000000000000000000000000000810460258301537c0100000000000000000000000000000000000000000000000000000000810460248301537b01000000000000000000000000000000000000000000000000000000810460238301537a0100000000000000000000000000000000000000000000000000008104602283015379010000000000000000000000000000000000000000000000000081046021830153780100000000000000000000000000000000000000000000000081046020830153506110e3828285600160048110610efc57fe5b6020020151600287600060048110610f1057fe5b60200201516040518082805190602001908083835b60208310610f485780518252602082019150602081019050602083039250610f25565b6001836020036101000a038019825116818451168082178552505050505050905001915050602060405180830381855afa158015610f8a573d6000803e3d6000fd5b5050506040513d6020811015610f9f57600080fd5b810190808051906020019092919050505087600260048110610fbd57fe5b60200201516040516020018085805190602001908083835b60208310610ff85780518252602082019150602081019050602083039250610fd5565b6001836020036101000a03801982511681845116808217855250505050505090500184805190602001908083835b602083106110495780518252602082019150602081019050602083039250611026565b6001836020036101000a03801982511681845116808217855250505050505090500183815260200182805190602001908083835b602083106110a0578051825260208201915060208101905060208303925061107d565b6001836020036101000a0380198251168184511680821785525050505050509050019450505050506040516020818303038152906040528051906020012061230b565b8199505050505050505050509392505050565b6000803090506000813b9050600081149250505090565b600073ffffffffffffffffffffffffffffffffffffffff16600160009054906101000a900473ffffffffffffffffffffffffffffffffffffffff1673ffffffffffffffffffffffffffffffffffffffff16148061119457506000611192600160009054906101000a900473ffffffffffffffffffffffffffffffffffffffff16611431565b145b156111a5576111a3600061143c565b505b600160009054906101000a900473ffffffffffffffffffffffffffffffffffffffff1673ffffffffffffffffffffffffffffffffffffffff166338cc48316040518163ffffffff1660e01b8152600401602060405180830381600087803b15801561120f57600080fd5b505af1158015611223573d6000803e3d6000fd5b505050506040513d602081101561123957600080fd5b810190808051906020019092919050505073ffffffffffffffffffffffffffffffffffffffff1660008054906101000a900473ffffffffffffffffffffffffffffffffffffffff1673ffffffffffffffffffffffffffffffffffffffff161461138157600160009054906101000a900473ffffffffffffffffffffffffffffffffffffffff1673ffffffffffffffffffffffffffffffffffffffff166338cc48316040518163ffffffff1660e01b8152600401602060405180830381600087803b15801561130657600080fd5b505af115801561131a573d6000803e3d6000fd5b505050506040513d602081101561133057600080fd5b81019080805190602001909291905050506000806101000a81548173ffffffffffffffffffffffffffffffffffffffff021916908373ffffffffffffffffffffffffffffffffffffffff1602179055505b60008054906101000a900473ffffffffffffffffffffffffffffffffffffffff1673ffffffffffffffffffffffffffffffffffffffff1663688dcfd7826040518263ffffffff1660e01b815260040180827effffffffffffffffffffffffffffffffffffffffffffffffffffffffffffff19168152602001915050600060405180830381600087803b15801561141657600080fd5b505af115801561142a573d6000803e3d6000fd5b5050505050565b6000813b9050919050565b6000611446612327565b9050919050565b606060028054600181600116156101000203166002900480601f0160208091040260200160405190810160405280929190818152602001828054600181600116156101000203166002900480156114e55780601f106114ba576101008083540402835291602001916114e5565b820191906000526020600020905b8154815290600101906020018083116114c857829003601f168201915b5050505050905090565b600080602060028760458151811061150357fe5b602001015160f81c60f81b60f81c60ff16016044010190506060602067ffffffffffffffff8111801561153557600080fd5b506040519080825280601f01601f1916602001820160405280156115685781602001600182028036833780820191505090505b50905061157a87836020846000611f29565b50600284876040516020018083805190602001908083835b602083106115b55780518252602082019150602081019050602083039250611592565b6001836020036101000a038019825116818451168082178552505050505050905001828152602001925050506040516020818303038152906040526040518082805190602001908083835b602083106116235780518252602082019150602081019050602083039250611600565b6001836020036101000a038019825116818451168082178552505050505050905001915050602060405180830381855afa158015611665573d6000803e3d6000fd5b5050506040513d602081101561167a57600080fd5b810190808051906020019092919050505060405160200180828152602001915050604051602081830303815290604052805190602001208180519060200120146116c957600092505050611c06565b606060028860016049860101815181106116df57fe5b602001015160f81c60f81b60f81c60ff160167ffffffffffffffff8111801561170757600080fd5b506040519080825280601f01601f19166020018201604052801561173a5781602001600182028036833780820191505090505b50905061174f88604985018351846000611f29565b5061181a6002826040518082805190602001908083835b602083106117895780518252602082019150602081019050602083039250611766565b6001836020036101000a038019825116818451168082178552505050505050905001915050602060405180830381855afa1580156117cb573d6000803e3d6000fd5b5050506040513d60208110156117e057600080fd5b8101908080519060200190929190505050878a600860208801018151811061180457fe5b602001015160f81c60f81b60f81c60ff1661287e565b61182a5760009350505050611c06565b6060602967ffffffffffffffff8111801561184457600080fd5b506040519080825280601f01601f1916602001820160405280156118775781602001600182028036833780820191505090505b50905061188c89602086016029846000611f29565b506060604067ffffffffffffffff811180156118a757600080fd5b506040519080825280601f01601f1916602001820160405280156118da5781602001600182028036833780820191505090505b50905060006041845160296020890101010190506119008b604083036040856000611f29565b5060006002836040518082805190602001908083835b602083106119395780518252602082019150602081019050602083039250611916565b6001836020036101000a038019825116818451168082178552505050505050905001915050602060405180830381855afa15801561197b573d6000803e3d6000fd5b5050506040513d602081101561199057600080fd5b8101908080519060200190929190505050905083816040516020018083805190602001908083835b602083106119db57805182526020820191506020810190506020830392506119b8565b6001836020036101000a0380198251168184511680821785525050505050509050018281526020019250505060405160208183030381529060405280519060200120600360008d8152602001908152602001600020541415611a5357600360008c815260200190815260200160002060009055611a63565b6000975050505050505050611c06565b6060604967ffffffffffffffff81118015611a7d57600080fd5b506040519080825280601f01601f191660200182016040528015611ab05781602001600182028036833780820191505090505b509050611ac28d896049846000611f29565b50611b6b6002826040518082805190602001908083835b60208310611afc5780518252602082019150602081019050602083039250611ad9565b6001836020036101000a038019825116818451168082178552505050505050905001915050602060405180830381855afa158015611b3e573d6000803e3d6000fd5b5050506040513d6020811015611b5357600080fd5b8101908080519060200190929190505050878661292b565b611b8057600098505050505050505050611c06565b6004600083815260200190815260200160002060009054906101000a900460ff16611bda57611baf8d84612b17565b6004600084815260200190815260200160002060006101000a81548160ff0219169083151502179055505b6004600083815260200190815260200160002060009054906101000a900460ff16985050505050505050505b949350505050565b60008073ffffffffffffffffffffffffffffffffffffffff16600160009054906101000a900473ffffffffffffffffffffffffffffffffffffffff1673ffffffffffffffffffffffffffffffffffffffff161480611c9657506000611c94600160009054906101000a900473ffffffffffffffffffffffffffffffffffffffff16611431565b145b15611ca757611ca5600061143c565b505b600160009054906101000a900473ffffffffffffffffffffffffffffffffffffffff1673ffffffffffffffffffffffffffffffffffffffff166338cc48316040518163ffffffff1660e01b8152600401602060405180830381600087803b158015611d1157600080fd5b505af1158015611d25573d6000803e3d6000fd5b505050506040513d6020811015611d3b57600080fd5b810190808051906020019092919050505073ffffffffffffffffffffffffffffffffffffffff1660008054906101000a900473ffffffffffffffffffffffffffffffffffffffff1673ffffffffffffffffffffffffffffffffffffffff1614611e8357600160009054906101000a900473ffffffffffffffffffffffffffffffffffffffff1673ffffffffffffffffffffffffffffffffffffffff166338cc48316040518163ffffffff1660e01b8152600401602060405180830381600087803b158015611e0857600080fd5b505af1158015611e1c573d6000803e3d6000fd5b505050506040513d6020811015611e3257600080fd5b81019080805190602001909291905050506000806101000a81548173ffffffffffffffffffffffffffffffffffffffff021916908373ffffffffffffffffffffffffffffffffffffffff1602179055505b60008054906101000a900473ffffffffffffffffffffffffffffffffffffffff1673ffffffffffffffffffffffffffffffffffffffff1663abaa5f3e6040518163ffffffff1660e01b815260040160206040518083038186803b158015611ee957600080fd5b505afa158015611efd573d6000803e3d6000fd5b505050506040513d6020811015611f1357600080fd5b8101908080519060200190929190505050905090565b6060600082850190508084511015611f4057600080fd5b600086602001905060008460200190505b868860200101821015611f795781890151808288015250602082019150602081019050611f51565b85935050505095945050505050565b60008073ffffffffffffffffffffffffffffffffffffffff16600160009054906101000a900473ffffffffffffffffffffffffffffffffffffffff1673ffffffffffffffffffffffffffffffffffffffff1614806120105750600061200e600160009054906101000a900473ffffffffffffffffffffffffffffffffffffffff16611431565b145b156120215761201f600061143c565b505b600160009054906101000a900473ffffffffffffffffffffffffffffffffffffffff1673ffffffffffffffffffffffffffffffffffffffff166338cc48316040518163ffffffff1660e01b8152600401602060405180830381600087803b15801561208b57600080fd5b505af115801561209f573d6000803e3d6000fd5b505050506040513d60208110156120b557600080fd5b810190808051906020019092919050505073ffffffffffffffffffffffffffffffffffffffff1660008054906101000a900473ffffffffffffffffffffffffffffffffffffffff1673ffffffffffffffffffffffffffffffffffffffff16146121fd57600160009054906101000a900473ffffffffffffffffffffffffffffffffffffffff1673ffffffffffffffffffffffffffffffffffffffff166338cc48316040518163ffffffff1660e01b8152600401602060405180830381600087803b15801561218257600080fd5b505af1158015612196573d6000803e3d6000fd5b505050506040513d60208110156121ac57600080fd5b81019080805190602001909291905050506000806101000a81548173ffffffffffffffffffffffffffffffffffffffff021916908373ffffffffffffffffffffffffffffffffffffffff1602179055505b6060600467ffffffffffffffff8111801561221757600080fd5b5060405190808252806020026020018201604052801561224b57816020015b60608152602001906001900390816122365790505b5090508360006004811061225b57fe5b60200201518160008151811061226d57fe5b60200260200101819052508360016004811061228557fe5b60200201518160018151811061229757fe5b6020026020010181905250836002600481106122af57fe5b6020020151816002815181106122c157fe5b6020026020010181905250836003600481106122d957fe5b6020020151816003815181106122eb57fe5b6020026020010181905250612301858285612fa3565b9150509392505050565b8060036000848152602001908152602001600020819055505050565b600080612347731d3b2638a7cc9f2cb3d298a3da7a90b67e5506ed611431565b11156123e957731d3b2638a7cc9f2cb3d298a3da7a90b67e5506ed600160006101000a81548173ffffffffffffffffffffffffffffffffffffffff021916908373ffffffffffffffffffffffffffffffffffffffff1602179055506123e06040518060400160405280600b81526020017f6574685f6d61696e6e6574000000000000000000000000000000000000000000815250613503565b6001905061287b565b600061240873c03a2615d5efaf5f49f60b7bb6583eaec212fdf1611431565b11156124aa5773c03a2615d5efaf5f49f60b7bb6583eaec212fdf1600160006101000a81548173ffffffffffffffffffffffffffffffffffffffff021916908373ffffffffffffffffffffffffffffffffffffffff1602179055506124a16040518060400160405280600c81526020017f6574685f726f707374656e330000000000000000000000000000000000000000815250613503565b6001905061287b565b60006124c973b7a07bcf2ba2f2703b24c0691b5278999c59ac7e611431565b111561256b5773b7a07bcf2ba2f2703b24c0691b5278999c59ac7e600160006101000a81548173ffffffffffffffffffffffffffffffffffffffff021916908373ffffffffffffffffffffffffffffffffffffffff1602179055506125626040518060400160405280600981526020017f6574685f6b6f76616e0000000000000000000000000000000000000000000000815250613503565b6001905061287b565b600061258a73146500cfd35b22e4a392fe0adc06de1a1368ed48611431565b111561262c5773146500cfd35b22e4a392fe0adc06de1a1368ed48600160006101000a81548173ffffffffffffffffffffffffffffffffffffffff021916908373ffffffffffffffffffffffffffffffffffffffff1602179055506126236040518060400160405280600b81526020017f6574685f72696e6b656279000000000000000000000000000000000000000000815250613503565b6001905061287b565b600061264b73a2998efd205fb9d4b4963afb70778d6354ad3a41611431565b11156126ed5773a2998efd205fb9d4b4963afb70778d6354ad3a41600160006101000a81548173ffffffffffffffffffffffffffffffffffffffff021916908373ffffffffffffffffffffffffffffffffffffffff1602179055506126e46040518060400160405280600a81526020017f6574685f676f65726c6900000000000000000000000000000000000000000000815250613503565b6001905061287b565b600061270c736f485c8bf6fc43ea212e93bbf8ce046c7f1cb475611431565b111561277057736f485c8bf6fc43ea212e93bbf8ce046c7f1cb475600160006101000a81548173ffffffffffffffffffffffffffffffffffffffff021916908373ffffffffffffffffffffffffffffffffffffffff1602179055506001905061287b565b600061278f7320e12a1f859b3feae5fb2a0a32c18f5a65555bbf611431565b11156127f3577320e12a1f859b3feae5fb2a0a32c18f5a65555bbf600160006101000a81548173ffffffffffffffffffffffffffffffffffffffff021916908373ffffffffffffffffffffffffffffffffffffffff1602179055506001905061287b565b60006128127351efaf4c8b3c9afbd5ab9f4bbc82784ab6ef8faa611431565b1115612876577351efaf4c8b3c9afbd5ab9f4bbc82784ab6ef8faa600160006101000a81548173ffffffffffffffffffffffffffffffffffffffff021916908373ffffffffffffffffffffffffffffffffffffffff1602179055506001905061287b565b600090505b90565b600080600190508284511461289257600080fd5b60005b8381101561291f578481815181106128a957fe5b602001015160f81c60f81b7effffffffffffffffffffffffffffffffffffffffffffffffffffffffffffff19168682602081106128e257fe5b1a60f81b7effffffffffffffffffffffffffffffffffffffffffffffffffffffffffffff19161461291257600091505b8080600101915050612895565b50809150509392505050565b60008060008060006060602067ffffffffffffffff8111801561294d57600080fd5b506040519080825280601f01601f1916602001820160405280156129805781602001600182028036833780820191505090505b509050600060208960038151811061299457fe5b602001015160f81c60f81b60f81c60ff160360040190506129ba89826020856000611f29565b91506060602067ffffffffffffffff811180156129d657600080fd5b506040519080825280601f01601f191660200182016040528015612a095781602001600182028036833780820191505090505b509050602282019150612a458a60208c6001860381518110612a2757fe5b602001015160f81c60f81b60f81c60ff160384016020846000611f29565b90506020830151945060208101519350612a628b601b878761351d565b80975081985050508573ffffffffffffffffffffffffffffffffffffffff16898051906020012060001c73ffffffffffffffffffffffffffffffffffffffff161415612ab8576001975050505050505050612b10565b612ac58b601c878761351d565b80975081985050508573ffffffffffffffffffffffffffffffffffffffff16898051906020012060001c73ffffffffffffffffffffffffffffffffffffffff16149750505050505050505b9392505050565b60008060606002856001860181518110612b2d57fe5b602001015160f81c60f81b60f81c60ff160167ffffffffffffffff81118015612b5557600080fd5b506040519080825280601f01601f191660200182016040528015612b885781602001600182028036833780820191505090505b509050612b9a85858351846000611f29565b506060604067ffffffffffffffff81118015612bb557600080fd5b506040519080825280601f01601f191660200182016040528015612be85781602001600182028036833780820191505090505b509050612bfb8660046040846000611f29565b506060606267ffffffffffffffff81118015612c1657600080fd5b506040519080825280601f01601f191660200182016040528015612c495781602001600182028036833780820191505090505b509050600160f81b81600081518110612c5e57fe5b60200101907effffffffffffffffffffffffffffffffffffffffffffffffffffffffffffff1916908160001a905350612c9f87604188036041846001611f29565b5060606040518060400160405280602081526020017ffd94fa71bc0ba10d39d464d0d8f465efeef0a2764e3887fcc9df41ded20f505c8152509050612cea8160006020856042611f29565b50612d936002836040518082805190602001908083835b60208310612d245780518252602082019150602081019050602083039250612d01565b6001836020036101000a038019825116818451168082178552505050505050905001915050602060405180830381855afa158015612d66573d6000803e3d6000fd5b5050506040513d6020811015612d7b57600080fd5b8101908080519060200190929190505050858561292b565b945084612da857600095505050505050612f9d565b6060604051806060016040528060408152602001613b746040913990506060604267ffffffffffffffff81118015612ddf57600080fd5b506040519080825280601f01601f191660200182016040528015612e125781602001600182028036833780820191505090505b50905060fe60f81b81600081518110612e2757fe5b60200101907effffffffffffffffffffffffffffffffffffffffffffffffffffffffffffff1916908160001a905350612e668a60036041846001611f29565b50606060028b604581518110612e7857fe5b602001015160f81c60f81b60f81c60ff160167ffffffffffffffff81118015612ea057600080fd5b506040519080825280601f01601f191660200182016040528015612ed35781602001600182028036833780820191505090505b509050612ee68b60448351846000611f29565b50612f8f6002836040518082805190602001908083835b60208310612f205780518252602082019150602081019050602083039250612efd565b6001836020036101000a038019825116818451168082178552505050505050905001915050602060405180830381855afa158015612f62573d6000803e3d6000fd5b5050506040513d6020811015612f7757600080fd5b8101908080519060200190929190505050828561292b565b975087985050505050505050505b92915050565b60008073ffffffffffffffffffffffffffffffffffffffff16600160009054906101000a900473ffffffffffffffffffffffffffffffffffffffff1673ffffffffffffffffffffffffffffffffffffffff16148061302b57506000613029600160009054906101000a900473ffffffffffffffffffffffffffffffffffffffff16611431565b145b1561303c5761303a600061143c565b505b600160009054906101000a900473ffffffffffffffffffffffffffffffffffffffff1673ffffffffffffffffffffffffffffffffffffffff166338cc48316040518163ffffffff1660e01b8152600401602060405180830381600087803b1580156130a657600080fd5b505af11580156130ba573d6000803e3d6000fd5b505050506040513d60208110156130d057600080fd5b810190808051906020019092919050505073ffffffffffffffffffffffffffffffffffffffff1660008054906101000a900473ffffffffffffffffffffffffffffffffffffffff1673ffffffffffffffffffffffffffffffffffffffff161461321857600160009054906101000a900473ffffffffffffffffffffffffffffffffffffffff1673ffffffffffffffffffffffffffffffffffffffff166338cc48316040518163ffffffff1660e01b8152600401602060405180830381600087803b15801561319d57600080fd5b505af11580156131b1573d6000803e3d6000fd5b505050506040513d60208110156131c757600080fd5b81019080805190602001909291905050506000806101000a81548173ffffffffffffffffffffffffffffffffffffffff021916908373ffffffffffffffffffffffffffffffffffffffff1602179055505b60008060009054906101000a900473ffffffffffffffffffffffffffffffffffffffff1673ffffffffffffffffffffffffffffffffffffffff16632ef3accc86856040518363ffffffff1660e01b81526004018080602001838152602001828103825284818151815260200191508051906020019080838360005b838110156132ae578082015181840152602081019050613293565b50505050905090810190601f1680156132db5780820380516001836020036101000a031916815260200191505b509350505050602060405180830381600087803b1580156132fb57600080fd5b505af115801561330f573d6000803e3d6000fd5b505050506040513d602081101561332557600080fd5b81019080805190602001909291905050509050823a02670de0b6b3a764000001811115613358576000801b9150506134fc565b606061336385613561565b905060008054906101000a900473ffffffffffffffffffffffffffffffffffffffff1673ffffffffffffffffffffffffffffffffffffffff1663c55c1cb68360008985896040518663ffffffff1660e01b8152600401808581526020018060200180602001848152602001838103835286818151815260200191508051906020019080838360005b838110156134065780820151818401526020810190506133eb565b50505050905090810190601f1680156134335780820380516001836020036101000a031916815260200191505b50838103825285818151815260200191508051906020019080838360005b8381101561346c578082015181840152602081019050613451565b50505050905090810190601f1680156134995780820380516001836020036101000a031916815260200191505b5096505050505050506020604051808303818588803b1580156134bb57600080fd5b505af11580156134cf573d6000803e3d6000fd5b50505050506040513d60208110156134e657600080fd5b8101908080519060200190929190505050925050505b9392505050565b8060029080519060200190613519929190613a8e565b5050565b60008060008060405188815287602082015286604082015285606082015260208160808360006001610bb8f192508051915050818193509350505094509492505050565b606061356b6135de565b613573613b0e565b61357f816104006135ea565b61358881613634565b60005b83518110156135c7576135ba8482815181106135a357fe5b60200260200101518361364290919063ffffffff16565b808060010191505061358b565b506135d181613667565b8060000151915050919050565b60405180590338823950565b60008190506000602082816135fb57fe5b0614613614576020818161360b57fe5b06602003810190505b808360200181815250506040518084526000815281810160405250505050565b61363f816004613675565b50565b61364f8260028351613696565b61366281836137d690919063ffffffff16565b505050565b613672816007613675565b50565b613692601f60058360ff16901b178361388190919063ffffffff16565b5050565b601781116136c2576136bd8160058460ff16901b60ff16178461388190919063ffffffff16565b6137d1565b60ff8111613703576136e7601860058460ff16901b178461388190919063ffffffff16565b6136fd816001856138c19092919063ffffffff16565b506137d0565b61ffff811161374557613729601960058460ff16901b178461388190919063ffffffff16565b61373f816002856138c19092919063ffffffff16565b506137cf565b63ffffffff81116137895761376d601a60058460ff16901b178461388190919063ffffffff16565b613783816004856138c19092919063ffffffff16565b506137ce565b67ffffffffffffffff81116137cd576137b5601b60058460ff16901b178461388190919063ffffffff16565b6137cb816008856138c19092919063ffffffff16565b505b5b5b5b5b505050565b6137de613b0e565b8260200151836000015151835101111561380e5761380d83600261380786602001518651613928565b02613944565b5b60008060008451905085518051602081830101945086518101825260208701935050505b602081106138555781518352602083019250602082019150602081039050613832565b60006001826020036101000a039050801983511681855116818117865250508694505050505092915050565b816020015160018360000151510111156138a7576138a6826002846020015102613944565b5b815180516020818301018381536001820183525050505050565b6138c9613b0e565b8360200151846000015151830111156138f7576138f68460026138f0876020015186613928565b02613944565b5b60006001836101000a0390508451805184818301018684198251161781528582018352505050849150509392505050565b60008183111561393a5782905061393e565b8190505b92915050565b60608260000151905061395783836135ea565b61396183826137d6565b50505050565b828054600181600116156101000203166002900490600052602060002090601f016020900481019282601f106139a857805160ff19168380011785556139d6565b828001600101855582156139d6579182015b828111156139d55782518255916020019190600101906139ba565b5b5090506139e39190613b28565b5090565b828054600181600116156101000203166002900490600052602060002090601f016020900481019282601f10613a2857805160ff1916838001178555613a56565b82800160010185558215613a56579182015b82811115613a55578251825591602001919060010190613a3a565b5b509050613a639190613b28565b5090565b60405180608001604052806004905b6060815260200190600190039081613a765790505090565b828054600181600116156101000203166002900490600052602060002090601f016020900481019282601f10613acf57805160ff1916838001178555613afd565b82800160010185558215613afd579182015b82811115613afc578251825591602001919060010190613ae1565b5b509050613b0a9190613b28565b5090565b604051806040016040528060608152602001600081525090565b5b80821115613b41576000816000905550600101613b29565b509056fe436f6e747261637420696e7374616e63652068617320616c7265616479206265656e20696e697469616c697a65647fb956469c5c9b89840d55b43537e66a98dd4811ea0a27224272c2e5622911e8537a2f8e86a46baec82864e98dd01e9ccc2f8bc5dfc9cbe5a91a290498dd96e4a26469706673582212205da4fd61a9c738cfc14b623561322822384079831267bc341a3543a9df9816ef64736f6c634300060c0033",
  "immutableReferences": {},
  "source": "// SPDX-License-Identifier: MIT\r\npragma solidity ^0.6.0;\r\nimport \"./provableAPI.sol\";\r\nimport \"@openzeppelin/upgrades-core/contracts/Initializable.sol\";\r\n\r\ncontract RandomExample2 is usingProvable,Initializable {\r\n    bytes public result;\r\n    bytes32 public queryId;\r\n    \r\n    function initialize() public initializer { \r\n        provable_setProof(proofType_Ledger); \r\n    }\r\n    \r\n    function __callback(bytes32  _queryId,string memory _result,bytes memory _proof ) override public {\r\n        require(msg.sender == provable_cbAddress());\r\n        if (provable_randomDS_proofVerify__returnCode(_queryId,_result,_proof)== 0)\r\n            result = bytes(_result);\r\n        else\r\n            result=\"Error\";\r\n    }\r\n    \r\n    function GetRandom(uint8 nrbytes) public payable { // not supported in remix\r\n        queryId=provable_newRandomDSQuery(\r\n            0,          // QUERY_EXECUTION_DELAY\r\n            nrbytes,    // NUM_RANDOM_BYTES_REQUESTED\r\n            200000      // GAS_FOR_CALLBACK\r\n        );\r\n    }\r\n}\r\n",
  "sourcePath": "Z:/blockchain/web3examples/ethereum/pattern_examples/UpgradeAndOracle/contracts/RandomExample2.sol",
  "compiler": {
    "name": "solc",
    "version": "0.6.12+commit.27d51765.Emscripten.clang"
  },
  "schemaVersion": "3.3.2",
  "updatedAt": "2021-01-29T15:54:34.788Z",
  "networkType": "ethereum",
  "devdoc": {
    "kind": "dev",
    "methods": {
      "__callback(bytes32,string)": {
        "details": "The following `__callback` functions are just placeholders ideally      meant to be defined in child contract when proofs are used.      The function bodies simply silence compiler warnings."
      }
    },
    "version": 1
  },
  "userdoc": {
    "kind": "user",
    "methods": {},
    "version": 1
  }
}