{
  "contractName": "CaptureTheFlag",
  "abi": [
    {
      "inputs": [
        {
          "internalType": "address",
          "name": "_forwarder",
          "type": "address"
        }
      ],
      "stateMutability": "nonpayable",
      "type": "constructor"
    },
    {
      "anonymous": false,
      "inputs": [
        {
          "indexed": false,
          "internalType": "address",
          "name": "_from",
          "type": "address"
        },
        {
          "indexed": false,
          "internalType": "address",
          "name": "_to",
          "type": "address"
        }
      ],
      "name": "FlagCaptured",
      "type": "event"
    },
    {
      "inputs": [
        {
          "internalType": "address",
          "name": "forwarder",
          "type": "address"
        }
      ],
      "name": "isTrustedForwarder",
      "outputs": [
        {
          "internalType": "bool",
          "name": "",
          "type": "bool"
        }
      ],
      "stateMutability": "view",
      "type": "function",
      "constant": true
    },
    {
      "inputs": [],
      "name": "trustedForwarder",
      "outputs": [
        {
          "internalType": "address",
          "name": "",
          "type": "address"
        }
      ],
      "stateMutability": "view",
      "type": "function",
      "constant": true
    },
    {
      "inputs": [],
      "name": "versionRecipient",
      "outputs": [
        {
          "internalType": "string",
          "name": "",
          "type": "string"
        }
      ],
      "stateMutability": "view",
      "type": "function",
      "constant": true
    },
    {
      "inputs": [],
      "name": "captureFlag",
      "outputs": [],
      "stateMutability": "nonpayable",
      "type": "function"
    },
    {
      "inputs": [],
      "name": "getTrustedForwarder",
      "outputs": [
        {
          "internalType": "address",
          "name": "",
          "type": "address"
        }
      ],
      "stateMutability": "view",
      "type": "function",
      "constant": true
    }
  ],
  "bytecode": "0x60806040526040518060400160405280600581526020017f322e302e300000000000000000000000000000000000000000000000000000008152506001908051906020019061004f929190610118565b506000600260006101000a81548173ffffffffffffffffffffffffffffffffffffffff021916908373ffffffffffffffffffffffffffffffffffffffff16021790555034801561009e57600080fd5b50604051610624380380610624833981810160405260208110156100c157600080fd5b8101908080519060200190929190505050806000806101000a81548173ffffffffffffffffffffffffffffffffffffffff021916908373ffffffffffffffffffffffffffffffffffffffff160217905550506101b5565b828054600181600116156101000203166002900490600052602060002090601f016020900481019282601f1061015957805160ff1916838001178555610187565b82800160010185558215610187579182015b8281111561018657825182559160200191906001019061016b565b5b5090506101949190610198565b5090565b5b808211156101b1576000816000905550600101610199565b5090565b610460806101c46000396000f3fe608060405234801561001057600080fd5b50600436106100575760003560e01c8063486ff0cd1461005c578063572b6c05146100df5780637da0a87714610139578063ce1b815f1461016d578063d481972f146101a1575b600080fd5b6100646101ab565b6040518080602001828103825283818151815260200191508051906020019080838360005b838110156100a4578082015181840152602081019050610089565b50505050905090810190601f1680156100d15780820380516001836020036101000a031916815260200191505b509250505060405180910390f35b610121600480360360208110156100f557600080fd5b81019080803573ffffffffffffffffffffffffffffffffffffffff169060200190929190505050610249565b60405180821515815260200191505060405180910390f35b6101416102a2565b604051808273ffffffffffffffffffffffffffffffffffffffff16815260200191505060405180910390f35b6101756102c6565b604051808273ffffffffffffffffffffffffffffffffffffffff16815260200191505060405180910390f35b6101a96102ef565b005b60018054600181600116156101000203166002900480601f0160208091040260200160405190810160405280929190818152602001828054600181600116156101000203166002900480156102415780601f1061021657610100808354040283529160200191610241565b820191906000526020600020905b81548152906001019060200180831161022457829003601f168201915b505050505081565b60008060009054906101000a900473ffffffffffffffffffffffffffffffffffffffff1673ffffffffffffffffffffffffffffffffffffffff168273ffffffffffffffffffffffffffffffffffffffff16149050919050565b60008054906101000a900473ffffffffffffffffffffffffffffffffffffffff1681565b60008060009054906101000a900473ffffffffffffffffffffffffffffffffffffffff16905090565b6000600260009054906101000a900473ffffffffffffffffffffffffffffffffffffffff16905061031e6103ee565b600260006101000a81548173ffffffffffffffffffffffffffffffffffffffff021916908373ffffffffffffffffffffffffffffffffffffffff1602179055507facc718a11fbc93a22905740808767480f9efd07b1c0b0128095790cd1440048d81600260009054906101000a900473ffffffffffffffffffffffffffffffffffffffff16604051808373ffffffffffffffffffffffffffffffffffffffff1681526020018273ffffffffffffffffffffffffffffffffffffffff1681526020019250505060405180910390a150565b6000601860003690501015801561040a575061040933610249565b5b1561041e57601436033560601c9050610426565b339050610427565b5b9056fea26469706673582212203bd95568020e799bd33a030f015827ddd75e2dec48d9c1e7fbc28079448477c664736f6c634300060c0033",
  "immutableReferences": {},
  "source": "pragma solidity ^0.6.10;\r\n\r\n// SPDX-License-Identifier: MIT OR Apache-2.0\r\n\r\nimport \"@opengsn/gsn/contracts/BaseRelayRecipient.sol\";\r\nimport \"@opengsn/gsn/contracts/interfaces/IKnowForwarderAddress.sol\";\r\n\r\ncontract CaptureTheFlag is BaseRelayRecipient, IKnowForwarderAddress {\r\n\tstring public override versionRecipient = \"2.0.0\";\r\n\r\n\tevent FlagCaptured(address _from, address _to);\r\n\r\n\taddress flagHolder = address(0);\r\n\r\n        // Get the forwarder address for the network\r\n        // you are using from\r\n        // https://docs.opengsn.org/gsn-provider/networks.html\r\n\tconstructor(address _forwarder) public {\r\n\t\ttrustedForwarder = _forwarder;\r\n\t}\r\n\r\n\tfunction captureFlag() external {\r\n\t\taddress previous = flagHolder;\r\n\r\n                // The real sender. If you are using GSN, this\r\n                // is not the same as msg.sender.\r\n\t\tflagHolder = _msgSender();\r\n\r\n\t\temit FlagCaptured(previous, flagHolder);\r\n\t}\r\n\r\n\tfunction getTrustedForwarder() public view\r\n\toverride returns(address) {\r\n\t\treturn trustedForwarder;\r\n\t}\r\n}",
  "sourcePath": "Z:/blockchain/web3examples/ethereum/truffle_examples/GasStation/contracts/CaptureTheFlag.sol",
  "compiler": {
    "name": "solc",
    "version": "0.6.12+commit.27d51765.Emscripten.clang"
  },
  "schemaVersion": "3.3.1",
  "updatedAt": "2020-10-28T12:31:06.608Z",
  "networkType": "ethereum",
  "devdoc": {
    "kind": "dev",
    "methods": {},
    "version": 1
  },
  "userdoc": {
    "kind": "user",
    "methods": {
      "getTrustedForwarder()": {
        "notice": "return the forwarder we trust to forward relayed transactions to us. the forwarder is required to verify the sender's signature, and verify the call is not a replay."
      },
      "isTrustedForwarder(address)": {
        "notice": "return if the forwarder is trusted to forward relayed transactions to us. the forwarder is required to verify the sender's signature, and verify the call is not a replay."
      }
    },
    "version": 1
  }
}