{
  "contractName": "CaptureTheFlag",
  "abi": [
    {
      "inputs": [
        {
          "internalType": "address",
          "name": "_forwarder",
          "type": "address"
        }
      ],
      "stateMutability": "nonpayable",
      "type": "constructor"
    },
    {
      "anonymous": false,
      "inputs": [
        {
          "indexed": false,
          "internalType": "address",
          "name": "_from",
          "type": "address"
        },
        {
          "indexed": false,
          "internalType": "address",
          "name": "_to",
          "type": "address"
        }
      ],
      "name": "FlagCaptured",
      "type": "event"
    },
    {
      "inputs": [],
      "name": "flagHolder",
      "outputs": [
        {
          "internalType": "address",
          "name": "",
          "type": "address"
        }
      ],
      "stateMutability": "view",
      "type": "function",
      "constant": true
    },
    {
      "inputs": [
        {
          "internalType": "address",
          "name": "forwarder",
          "type": "address"
        }
      ],
      "name": "isTrustedForwarder",
      "outputs": [
        {
          "internalType": "bool",
          "name": "",
          "type": "bool"
        }
      ],
      "stateMutability": "view",
      "type": "function",
      "constant": true
    },
    {
      "inputs": [],
      "name": "paymaster",
      "outputs": [
        {
          "internalType": "address payable",
          "name": "",
          "type": "address"
        }
      ],
      "stateMutability": "view",
      "type": "function",
      "constant": true
    },
    {
      "inputs": [],
      "name": "trustedForwarder",
      "outputs": [
        {
          "internalType": "address",
          "name": "",
          "type": "address"
        }
      ],
      "stateMutability": "view",
      "type": "function",
      "constant": true
    },
    {
      "inputs": [],
      "name": "versionRecipient",
      "outputs": [
        {
          "internalType": "string",
          "name": "",
          "type": "string"
        }
      ],
      "stateMutability": "view",
      "type": "function",
      "constant": true
    },
    {
      "stateMutability": "payable",
      "type": "receive",
      "payable": true
    },
    {
      "inputs": [],
      "name": "captureFlag",
      "outputs": [],
      "stateMutability": "nonpayable",
      "type": "function"
    },
    {
      "inputs": [],
      "name": "getTrustedForwarder",
      "outputs": [
        {
          "internalType": "address",
          "name": "",
          "type": "address"
        }
      ],
      "stateMutability": "view",
      "type": "function",
      "constant": true
    },
    {
      "inputs": [
        {
          "internalType": "address payable",
          "name": "_paymaster",
          "type": "address"
        }
      ],
      "name": "setWithdrawDuringRelayedCall",
      "outputs": [],
      "stateMutability": "nonpayable",
      "type": "function"
    }
  ],
  "bytecode": "0x60806040526040518060600160405280602281526020016107ec602291396001908051906020019061003292919061010d565b506000600260006101000a81548173ffffffffffffffffffffffffffffffffffffffff021916908373ffffffffffffffffffffffffffffffffffffffff16021790555034801561008157600080fd5b5060405161080e38038061080e833981810160405260208110156100a457600080fd5b81019080805190602001909291905050506100c4816100ca60201b60201c565b506101aa565b806000806101000a81548173ffffffffffffffffffffffffffffffffffffffff021916908373ffffffffffffffffffffffffffffffffffffffff16021790555050565b828054600181600116156101000203166002900490600052602060002090601f016020900481019282601f1061014e57805160ff191683800117855561017c565b8280016001018555821561017c579182015b8281111561017b578251825591602001919060010190610160565b5b509050610189919061018d565b5090565b5b808211156101a657600081600090555060010161018e565b5090565b610633806101b96000396000f3fe60806040526004361061007f5760003560e01c80637da0a8771161004e5780637da0a877146102045780638db93e3d14610245578063ce1b815f14610296578063d481972f146102d757610086565b806316e4cbf91461008b5780632ded7716146100cc578063486ff0cd1461010d578063572b6c051461019d57610086565b3661008657005b600080fd5b34801561009757600080fd5b506100a06102ee565b604051808273ffffffffffffffffffffffffffffffffffffffff16815260200191505060405180910390f35b3480156100d857600080fd5b506100e1610314565b604051808273ffffffffffffffffffffffffffffffffffffffff16815260200191505060405180910390f35b34801561011957600080fd5b5061012261033a565b6040518080602001828103825283818151815260200191508051906020019080838360005b83811015610162578082015181840152602081019050610147565b50505050905090810190601f16801561018f5780820380516001836020036101000a031916815260200191505b509250505060405180910390f35b3480156101a957600080fd5b506101ec600480360360208110156101c057600080fd5b81019080803573ffffffffffffffffffffffffffffffffffffffff1690602001909291905050506103d8565b60405180821515815260200191505060405180910390f35b34801561021057600080fd5b50610219610431565b604051808273ffffffffffffffffffffffffffffffffffffffff16815260200191505060405180910390f35b34801561025157600080fd5b506102946004803603602081101561026857600080fd5b81019080803573ffffffffffffffffffffffffffffffffffffffff169060200190929190505050610455565b005b3480156102a257600080fd5b506102ab610499565b604051808273ffffffffffffffffffffffffffffffffffffffff16815260200191505060405180910390f35b3480156102e357600080fd5b506102ec6104c2565b005b600360009054906101000a900473ffffffffffffffffffffffffffffffffffffffff1681565b600260009054906101000a900473ffffffffffffffffffffffffffffffffffffffff1681565b60018054600181600116156101000203166002900480601f0160208091040260200160405190810160405280929190818152602001828054600181600116156101000203166002900480156103d05780601f106103a5576101008083540402835291602001916103d0565b820191906000526020600020905b8154815290600101906020018083116103b357829003601f168201915b505050505081565b60008060009054906101000a900473ffffffffffffffffffffffffffffffffffffffff1673ffffffffffffffffffffffffffffffffffffffff168273ffffffffffffffffffffffffffffffffffffffff16149050919050565b60008054906101000a900473ffffffffffffffffffffffffffffffffffffffff1681565b80600360006101000a81548173ffffffffffffffffffffffffffffffffffffffff021916908373ffffffffffffffffffffffffffffffffffffffff16021790555050565b60008060009054906101000a900473ffffffffffffffffffffffffffffffffffffffff16905090565b6000600260009054906101000a900473ffffffffffffffffffffffffffffffffffffffff1690506104f16105c1565b600260006101000a81548173ffffffffffffffffffffffffffffffffffffffff021916908373ffffffffffffffffffffffffffffffffffffffff1602179055507facc718a11fbc93a22905740808767480f9efd07b1c0b0128095790cd1440048d81600260009054906101000a900473ffffffffffffffffffffffffffffffffffffffff16604051808373ffffffffffffffffffffffffffffffffffffffff1681526020018273ffffffffffffffffffffffffffffffffffffffff1681526020019250505060405180910390a150565b600060186000369050101580156105dd57506105dc336103d8565b5b156105f157601436033560601c90506105f9565b3390506105fa565b5b9056fea2646970667358221220be5e35a0e6bee1d72b9246aa9cb30d8bdbd6e2450f29dabbe7b47c8aece702a564736f6c634300060c0033322e302e302b6f70656e67736e2e746573742e6972656c6179726563697069656e74",
  "immutableReferences": {},
  "source": "// based on https://github.com/qbzzt/opengsn/tree/master/01_SimpleUse\r\npragma solidity ^0.6.10;\r\n// SPDX-License-Identifier: MIT OR Apache-2.0\r\n\r\nimport \"@opengsn/gsn/contracts/BaseRelayRecipient.sol\";\r\nimport \"@opengsn/gsn/contracts/interfaces/IKnowForwarderAddress.sol\";\r\n\r\ncontract CaptureTheFlag is BaseRelayRecipient, IKnowForwarderAddress {\r\n\tstring public override versionRecipient = \"2.0.0+opengsn.test.irelayrecipient\";\r\n    address public flagHolder = address(0);\r\n\tevent FlagCaptured(address _from, address _to);\r\n        \r\n\tconstructor(address _forwarder) public {\r\n        setTrustedForwarder(_forwarder);\r\n\t}\r\n\r\n\tfunction captureFlag() external {\r\n\t\taddress previous = flagHolder;\r\n\t\tflagHolder = _msgSender(); // The real sender. Note with GSN  _msgSender() != msg.sender\r\n\t\temit FlagCaptured(previous, flagHolder);\r\n\t}\r\n\r\n  function setTrustedForwarder(address _forwarder) internal {\r\n        trustedForwarder = _forwarder;\r\n    }\r\n\r\n\tfunction getTrustedForwarder() public view override returns(address) {\r\n\t\treturn trustedForwarder;\r\n\t}\r\n    \r\n    \r\n    address payable public paymaster;\r\n\r\n    function setWithdrawDuringRelayedCall(address payable _paymaster) public {\r\n        paymaster = _paymaster;\r\n    }\r\n    receive() external payable {}\r\n}",
  "sourcePath": "Z:/blockchain/web3examples/ethereum/gsn_examples/contracts/CaptureTheFlag.sol",
  "compiler": {
    "name": "solc",
    "version": "0.6.12+commit.27d51765.Emscripten.clang"
  },
  "schemaVersion": "3.3.2",
  "updatedAt": "2020-12-29T09:53:31.212Z",
  "networkType": "ethereum",
  "devdoc": {
    "kind": "dev",
    "methods": {},
    "version": 1
  },
  "userdoc": {
    "kind": "user",
    "methods": {
      "getTrustedForwarder()": {
        "notice": "return the forwarder we trust to forward relayed transactions to us. the forwarder is required to verify the sender's signature, and verify the call is not a replay."
      },
      "isTrustedForwarder(address)": {
        "notice": "return if the forwarder is trusted to forward relayed transactions to us. the forwarder is required to verify the sender's signature, and verify the call is not a replay."
      }
    },
    "version": 1
  }
}