{
  "contractName": "RelayHubInterface",
  "abi": [
    {
      "inputs": [
        {
          "internalType": "address",
          "name": "target",
          "type": "address"
        }
      ],
      "name": "depositFor",
      "outputs": [],
      "stateMutability": "payable",
      "type": "function",
      "payable": true
    }
  ],
  "bytecode": "0x608060405234801561001057600080fd5b5060ef8061001f6000396000f3fe608060405260043610601c5760003560e01c8063aa67c919146021575b600080fd5b6037600480360381019060339190604f565b6039565b005b50565b60008135905060498160a5565b92915050565b600060208284031215606057600080fd5b6000606c84828501603c565b91505092915050565b6000607e826085565b9050919050565b600073ffffffffffffffffffffffffffffffffffffffff82169050919050565b60ac816075565b811460b657600080fd5b5056fea26469706673582212202aad3d32e218ec95b8ebe1c6b06b33cd2bdb02b43c5ce14c6a3fd894c941768f64736f6c634300060c0033",
  "immutableReferences": {},
  "source": "// SPDX-License-Identifier:MIT\npragma solidity ^0.6.9;\npragma experimental ABIEncoderV2;\n \ncontract RelayHubInterface   {\n    \n    function depositFor(address target) public virtual payable { // only the interface\n       \n    }\n \n}\n",
  "sourcePath": "Z:/blockchain/web3examples/ethereum/gsn_examples/contracts/RelayHubInterface.sol",
  "compiler": {
    "name": "solc",
    "version": "0.6.12+commit.27d51765.Emscripten.clang"
  },
  "schemaVersion": "3.3.1",
  "updatedAt": "2020-10-28T15:35:07.156Z",
  "networkType": "ethereum",
  "devdoc": {
    "kind": "dev",
    "methods": {},
    "version": 1
  },
  "userdoc": {
    "kind": "user",
    "methods": {},
    "version": 1
  }
}