{
  "contractName": "RandomNumberConsumer",
  "abi": [
    {
      "inputs": [],
      "stateMutability": "nonpayable",
      "type": "constructor"
    },
    {
      "inputs": [
        {
          "internalType": "bytes32",
          "name": "requestId",
          "type": "bytes32"
        },
        {
          "internalType": "uint256",
          "name": "randomness",
          "type": "uint256"
        }
      ],
      "name": "rawFulfillRandomness",
      "outputs": [],
      "stateMutability": "nonpayable",
      "type": "function"
    },
    {
      "inputs": [],
      "name": "result",
      "outputs": [
        {
          "internalType": "uint256",
          "name": "",
          "type": "uint256"
        }
      ],
      "stateMutability": "view",
      "type": "function",
      "constant": true
    },
    {
      "inputs": [],
      "name": "CheckBalance",
      "outputs": [
        {
          "internalType": "uint256",
          "name": "",
          "type": "uint256"
        }
      ],
      "stateMutability": "view",
      "type": "function",
      "constant": true
    },
    {
      "inputs": [
        {
          "internalType": "uint256",
          "name": "userProvidedSeed",
          "type": "uint256"
        }
      ],
      "name": "getRandomNumber",
      "outputs": [
        {
          "internalType": "bytes32",
          "name": "requestId",
          "type": "bytes32"
        }
      ],
      "stateMutability": "nonpayable",
      "type": "function"
    }
  ],
  "bytecode": "0x60c060405234801561001057600080fd5b5073dd3782915140c8f3b190b5d67eac6dc5760c46e973a36085f69e2889c224210f603d836748e7dc00888173ffffffffffffffffffffffffffffffffffffffff1660a08173ffffffffffffffffffffffffffffffffffffffff1660601b815250508073ffffffffffffffffffffffffffffffffffffffff1660808173ffffffffffffffffffffffffffffffffffffffff1660601b8152505050507f6c3699283bda56ad74f6b855546325b68d482e983852a7a82979cc4807b641f460001b60018190555067016345785d8a000060028190555060805160601c60a05160601c61069c610117600039806101d8528061036a52508061010b528061032e525061069c6000f3fe608060405234801561001057600080fd5b506004361061004c5760003560e01c806344e73b7814610051578063653721471461006f57806394985ddd1461008d578063b37217a4146100c5575b600080fd5b610059610107565b6040518082815260200191505060405180910390f35b6100776101d0565b6040518082815260200191505060405180910390f35b6100c3600480360360408110156100a357600080fd5b8101908080359060200190929190803590602001909291905050506101d6565b005b6100f1600480360360208110156100db57600080fd5b81019080803590602001909291905050506102a5565b6040518082815260200191505060405180910390f35b60007f000000000000000000000000000000000000000000000000000000000000000073ffffffffffffffffffffffffffffffffffffffff166370a08231306040518263ffffffff1660e01b8152600401808273ffffffffffffffffffffffffffffffffffffffff16815260200191505060206040518083038186803b15801561019057600080fd5b505afa1580156101a4573d6000803e3d6000fd5b505050506040513d60208110156101ba57600080fd5b8101908080519060200190929190505050905090565b60035481565b7f000000000000000000000000000000000000000000000000000000000000000073ffffffffffffffffffffffffffffffffffffffff163373ffffffffffffffffffffffffffffffffffffffff1614610297576040517f08c379a000000000000000000000000000000000000000000000000000000000815260040180806020018281038252601f8152602001807f4f6e6c7920565246436f6f7264696e61746f722063616e2066756c66696c6c0081525060200191505060405180910390fd5b6102a1828261031f565b5050565b60006002546102b2610107565b1015610309576040517f08c379a00000000000000000000000000000000000000000000000000000000081526004018080602001828103825260228152602001806106456022913960400191505060405180910390fd5b6103186001546002548461032a565b9050919050565b806003819055505050565b60007f000000000000000000000000000000000000000000000000000000000000000073ffffffffffffffffffffffffffffffffffffffff16634000aea07f000000000000000000000000000000000000000000000000000000000000000085878660405160200180838152602001828152602001925050506040516020818303038152906040526040518463ffffffff1660e01b8152600401808473ffffffffffffffffffffffffffffffffffffffff16815260200183815260200180602001828103825283818151815260200191508051906020019080838360005b83811015610423578082015181840152602081019050610408565b50505050905090810190601f1680156104505780820380516001836020036101000a031916815260200191505b50945050505050602060405180830381600087803b15801561047157600080fd5b505af1158015610485573d6000803e3d6000fd5b505050506040513d602081101561049b57600080fd5b81019080805190602001909291905050505060006104cd8584306000808a81526020019081526020016000205461051f565b90506104f560016000808881526020019081526020016000205461058390919063ffffffff16565b60008087815260200190815260200160002081905550610515858261060b565b9150509392505050565b600084848484604051602001808581526020018481526020018373ffffffffffffffffffffffffffffffffffffffff1681526020018281526020019450505050506040516020818303038152906040528051906020012060001c9050949350505050565b600080828401905083811015610601576040517f08c379a000000000000000000000000000000000000000000000000000000000815260040180806020018281038252601b8152602001807f536166654d6174683a206164646974696f6e206f766572666c6f77000000000081525060200191505060405180910390fd5b8091505092915050565b6000828260405160200180838152602001828152602001925050506040516020818303038152906040528051906020012090509291505056fe4e6f7420656e6f756768204c494e4b20546f6b656e7320696e20636f6e7472616374a2646970667358221220ad9ed139c032898ad02c06566449b844b139232a231d20577e8b61871179a46f64736f6c634300060c0033",
  "immutableReferences": {
    "189": [
      {
        "length": 32,
        "start": 267
      },
      {
        "length": 32,
        "start": 814
      }
    ],
    "191": [
      {
        "length": 32,
        "start": 472
      },
      {
        "length": 32,
        "start": 874
      }
    ]
  },
  "source": "// run on Kovan testchain, send some LINK tokens to the contract first\r\n// source: https://docs.chain.link/docs/get-a-random-number\r\n\r\npragma solidity ^0.6.0;\r\nimport \"@chainlink/contracts/src/v0.6/VRFConsumerBase.sol\";\r\n\r\ncontract RandomNumberConsumer is VRFConsumerBase {\r\n    bytes32 internal keyHash;\r\n    uint256 internal fee;\r\n    uint256 public result;\r\n    \r\n    constructor() \r\n        VRFConsumerBase(\r\n            0xdD3782915140c8f3b190B5D67eAc6dc5760C46E9, // VRF Coordinator https://docs.chain.link/docs/vrf-contracts#kovan\r\n            0xa36085F69e2889c224210F603D836748e7dC0088  // LINK Token\r\n        ) public\r\n    {\r\n        keyHash = 0x6c3699283bda56ad74f6b855546325b68d482e983852a7a82979cc4807b641f4;\r\n        fee = 0.1 * 10 ** 18; // 0.1 LINK\r\n    }\r\n    function CheckBalance() public view returns (uint) {\r\n      return LINK.balanceOf(address(this));\r\n    }\r\n    function fulfillRandomness(bytes32 /*requestId*/, uint256 randomness) internal override {\r\n        result = randomness;\r\n    }\r\n    function getRandomNumber(uint256 userProvidedSeed) public returns (bytes32 requestId) {\r\n        require (CheckBalance() >= fee,\"Not enough LINK Tokens in contract\");\r\n        return requestRandomness(keyHash, fee, userProvidedSeed);\r\n    }\r\n}\r\n",
  "sourcePath": "Z:/blockchain/web3examples/ethereum/oracle_examples/TruffleChainlinkOracle/contracts/RandomNumberConsumer.sol",
  "compiler": {
    "name": "solc",
    "version": "0.6.12+commit.27d51765.Emscripten.clang"
  },
  "schemaVersion": "3.3.2",
  "updatedAt": "2021-02-05T11:50:12.359Z",
  "networkType": "ethereum",
  "devdoc": {
    "kind": "dev",
    "methods": {},
    "version": 1
  },
  "userdoc": {
    "kind": "user",
    "methods": {},
    "version": 1
  }
}